:020000040800F2
:10000000381C002029020008C92100081B1E000816
:100010006120000871080008592C00080000000049
:100020000000000000000000000000009101000836
:10003000A108000800000000D50100083D2A0008C2
:10004000430200084302000843020008430200087C
:10005000430200084302000843020008430200086C
:10006000430200084302000843020008430200085C
:10007000430200084302000843020008430200084C
:10008000430200084302000843020008430200083C
:10009000430200084302000843020008430200082C
:1000A000430200084302000843020008430200081C
:1000B000D92A00084302000843020008430200084E
:1000C00043020008430200084302000843020008FC
:1000D00043020008430200084302000843020008EC
:1000E00043020008430200084302000800F002F83F
:1000F00000F03EF80AA090E8000C82448344AAF184
:100100000107DA4501D100F033F8AFF2090EBAE881
:100110000F0013F0010F18BFFB1A43F0010318473B
:100120001044000030440000103A24BF78C878C161
:10013000FAD8520724BF30C830C144BF04680C60ED
:10014000704700000023002400250026103A28BF35
:1001500078C1FBD8520728BF30C148BF0B60704739
:100160001FB59DE8030000F049FA1FBD10B510BD92
:1001700000F0FCFA1146FFF7F3FF02F08BFD00F0F0
:100180001AFB03B4FFF7F2FF03BC00F04BFB0000C7
:10019000224B19680868B0E8F00F80F30988BFF3B4
:1001A0006F8F4FF0000080F311884EF00D0E7047F6
:1001B0000000000006480068006880F3088862B606
:1001C00061B6BFF34F8FBFF36F8F00DF00BF00BF7B
:1001D00008ED00E0EFF30980BFF36F8F0F4B1A6853
:1001E00020E9F00F106008B54FF0BF0080F31188D0
:1001F000BFF34F8FBFF36F8F03F0CAFA4FF00000C9
:1002000080F31188BDE8084019680868B0E8F00F6D
:1002100080F30988BFF36F8F704700BF1400002080
:10022000EFF3058070470000094880470948004700
:10023000FEE7FEE7FEE7FEE7FEE7FEE7FEE7FEE796
:10024000FEE7FEE704480549054A064B70470000F3
:10025000D52A0008ED00000838160020381C0020C0
:10026000381800203818002070B5064600F0AAF9AA
:10027000056806F10B0020F00704B4429CBF002083
:1002800070BD2B466A68BAB11068A04210D304F161
:10029000080188423CBF5068586007D35168101964
:1002A00041601168091B016058601460101D70BD29
:1002B00013465268002AE7D12146284600F08AF901
:1002C0000028DED170BD70B50446051F00F07AF934
:1002D0000068002C14BF446870BD002C18BFAC42ED
:1002E0003CBF20466468F8D301680A18AA4218BFC8
:1002F000456003D12A680546114401602868411908
:10030000A1421CBF6C6070BD6168696021680844CF
:10031000286070BD10B5431C02E010F8011B71B1DC
:100320008107FAD14FF0013202C88C1A8C4314EACB
:10033000C211F9D0C01A0A0603D0C01E10BDC01ADF
:1003400010BD0A0401D0801E10BD0902FCD0401E61
:1003500010BD10B5203AC0F00B80B1E81850203A1B
:10036000A0E81850B1E81850A0E81850BFF4F5AF55
:100370005FEA027C24BFB1E81850A0E8185044BFDF
:1003800018C918C0BDE810405FEA827C24BF51F84C
:10039000043B40F8043B08BF7047D20728BF31F840
:1003A000023B48BF11F8012B28BF20F8023B48BF91
:1003B00000F8012B70474FF0000200B51346944639
:1003C0009646203922BFA0E80C50A0E80C50B1F1AD
:1003D0002001BFF4F7AF090728BFA0E80C5048BFC1
:1003E0000CC05DF804EB890028BF40F8042B08BF5F
:1003F000704748BF20F8022B11F0804F18BF00F85B
:10040000012B7047014900F02FB90000AC15002006
:1004100010B503681C1404EB21449BB289B2194443
:1004200094FBF2F302FB134394FBF2F401EB03435E
:1004300093FBF2F102FB113193FBF2F301E05B1E3F
:1004400011440029FBDB016003EB044010BDF0B553
:1004500004464FF0FF3585B0006804906068029054
:10046000A0680390E068019020690090666906F139
:100470008040B0F1004F7CD83C22002104A8FFF757
:10048000C7FF3C22014602A8FFF7C2FF182201461F
:1004900003A8FFF7BDFF411E40F2B55201A8FFF7C8
:1004A000B7FF0C22074668460021FFF7B1FF414B1A
:1004B00000EB8700304400267B4411E0511A019183
:1004C0000099491C0229009102D00C2908D105E0AD
:1004D000810705D00199491C019101E0401C00965B
:1004E0000099019A595C9142E8DD0099012906D1F1
:1004F0001C2A04D1810702D00221CDE90016A0F107
:1005000046018B293CD2DDE90061002202E09F5CBC
:10051000521C3944B242FADB012E02DD820700D0C0
:10052000491E40F2B55340F26D16C21700EB9272AD
:1005300092105A4300F0030303FB062283070A4488
:1005400000D1521E039E02EB4203049F06EBC3033D
:10055000029EC3EB031306EB8303174E33441E14B2
:100560009BB2C6EB0616C3EB0313B60007EB83037F
:1005700000E005E006EB134666F31F43360C02D09D
:10058000284605B0F0BD80C4029E40C4039E40C40E
:10059000019E761C44F80C6B009E44E90260072023
:1005A000521C92FBF0F600FB162084E8230018464C
:1005B000E7E7000066400000A039CEFD70477047B5
:1005C0007047000000487047E015002070477047F2
:1005D0007047704738B504460A4600206946AFF3B5
:1005E0000080002808BF38BD02460099204600F070
:1005F0009BF8012038BD012000F0B0B8F8B5AFF38A
:100600000080054600200C46102000BF0646A819B1
:10061000A0420DD9324669460020AFF300800700A2
:1006200008BF00F09BF80098A04218BF0546C41907
:10063000FFF7C8FF05600746F01D20F007004619C8
:10064000284600F00AF8B44208BFF8BDA21B3146A4
:100650003868BDE8F84000F067B800210160C0E9E3
:10066000011070471020704770B50C4601680020DB
:100670004A1C3ED03C22B1FBF2F302FB1313B1FB48
:10068000F2F12360B1FBF2F302FB1313B1FBF2F1C1
:1006900018226360B1FBF2F302FB1313B1FBF2F11A
:1006A00046F2E0320A440721A360B2FBF1F301FBFA
:1006B000132140F2B553B2FBF3F5A161B2FBF3F1A4
:1006C00003FB15228900B2F5B77F08D39B10521E99
:1006D000B2FBF3F52944B2FBF3F503FB15220F4BF4
:1006E000E261616189077B440CD03B2A0AD3521C2A
:1006F00008E02C212046FFF75EFE0120E0600AE0C2
:10070000521A401C195C9142FAD9521CC4E90320C8
:100710004FF0FF302062204670BD0000383E0000E0
:1007200000487047D8150020034640688C460028D2
:1007300018BF88423CBF03464068F8D31868184485
:10074000884207D00CF1030020F00700001D411A79
:10075000521A0146081D0A60FFF7B5BD10B500F03A
:1007600039F8BDE8104000F02FB870477546FFF724
:10077000D7FFAE4605006946534620F00700854680
:1007800018B020B5FFF75EFDBDE820404FF0000631
:100790004FF000074FF000084FF0000B21F0070169
:1007A000AC46ACE8C009ACE8C009ACE8C009ACE8AC
:1007B000C0098D46704710B50446AFF3008020464F
:1007C000BDE81040FFF7DDBC002801D000F02AB8DA
:1007D0007047000010B5012805D0002103A000F0EB
:1007E00027F8012010BD09A1F8E70000534947523E
:1007F000544D454D3A204F7574206F6620686561F1
:1008000070206D656D6F7279000000003A204865B8
:100810006170206D656D6F727920636F7272757093
:100820007465640001491820ABBEFEE72600020093
:1008300070B505460C460A2000E06D1C00F011F86A
:1008400035B128780028F8D102E0641C00F009F8DE
:1008500014B120780028F8D1BDE870400A20AFF329
:10086000008008B569468DF800000320ABBE08BDC6
:1008700000BFFEE71CB50548012100230A02CDE9AF
:10088000001003A1054803F005F81CBD7800002006
:100890005254435F446973706C6179005D2B0008AA
:1008A000704772B600BFFEE72DE9F8470346002205
:1008B000944666E14FF0010808FA02F4D1F800808E
:1008C00008EA0400A0427DD1DFF8CCA2D1F8048070
:1008D000A8EB0A09D0453AD014DCB8F1030F50D088
:1008E00009DCB8F1000F31D0B8F1010F1CD0B8F11C
:1008F000020F49D120E0B8F1110F18D0B8F1120F52
:1009000042D11EE0B9F5881F25D006DCB9F5803F3D
:1009100020D0B9F5801F37D11AE0B9F5001F18D0E3
:10092000B9F5041F30D117E0D1F80CC02DE0D1F893
:100930000C8008F1040C28E0D1F80C8008F1080CB8
:1009400023E0D1F80C8008F10C0C1EE000BF00BFC2
:1009500000BF00BF00BF00BFD1F80880B8F1000F92
:1009600002D14FF0040C0BE0D1F80880B8F1010F70
:1009700003D14FF0080C1C6102E04FF0080C5C61E1
:1009800003E04FF0000C00E000BF00BFFF2801D8DB
:10099000984601E003F104084646FF2802D84FEAD2
:1009A000820803E0A2F108084FEA88084746D6F813
:1009B00000804FF00F0909FA07F928EA09080CFA34
:1009C00007F900E085E048EA0908C6F80080D1F898
:1009D000048008F08058B8F1805F7AD100BFDFF85A
:1009E000BC81D8F8188048F00108DFF8B091C9F848
:1009F0001880C846D8F8188008F00108CDF80080A3
:100A000000BF00BF4FEAB9384FEA920958F82950A1
:100A10004FEA82784FEA18794FF00F0808FA09F880
:100A200025EA0805DFF87881434502D14FF0000838
:100A30000FE0DFF87081434502D14FF0010808E074
:100A4000DFF86481434502D14FF0020801E04FF026
:100A500003084FEA82794FEA197908FA09F848EA57
:100A60000505DFF848814FEA920948F82950D1F886
:100A7000048008F48018B8F5801F0AD1DFF83081AF
:100A8000D8F8008048EA0008DFF82491C9F800800F
:100A900009E0DFF81C81D8F8008028EA0008DFF8B8
:100AA0001091C9F80080D1F8048008F40018B8F556
:100AB000001F0FD1DFF8F88008F10408D8F8008093
:100AC00048EA0008DFF8E89009F10409C9F8008055
:100AD0000EE055E0DFF8D88008F10408D8F800806F
:100AE00028EA0008DFF8C89009F10409C9F8008075
:100AF000D1F8048008F40038B8F5003F0ED1DFF8D3
:100B0000B080A8F10408D8F8008048EA0008DFF8AF
:100B1000A090A9F10409C9F800800DE0DFF89080E9
:100B2000A8F10408D8F8008028EA0008DFF88090CF
:100B3000A9F10409C9F80080D1F8048008F48038CC
:100B4000B8F5803F0ED1DFF86880A8F10808D8F822
:100B5000008048EA0008DFF85890A9F10809C9F8B0
:100B600000800DE0DFF84880A8F10808D8F8008080
:100B700028EA0008DFF83890A9F10809C9F80080D0
:100B8000521CD1F8008028FA02F8B8F1000F7FF467
:100B900091AEBDE8F887000000001110001002407F
:100BA00000080140000C0140001001400800014015
:100BB00008040140024693680B400BB1012000E09D
:100BC0000020704710B5C26821EA020302EA01045E
:100BD00043EA0443036110BD0AB1016101E00B0463
:100BE000036170470148006870470000040000205E
:100BF00003480068034909780844014908607047C0
:100C0000040000200C00002010B50848006840F0E7
:100C1000100006490860032000F0DAF8012000F017
:100C200007F800F05DF8002010BD00000020024031
:100C30002DE9F04188B004460027B846002600BFE1
:100C40002348C06940F001002149C8610846C069D5
:100C500000F00100019000BF00BF02A903A800F04E
:100C6000ADFA069F1FB900F0D1FA054602E000F088
:100C7000CDFA45001748B5FBF0F0A0F101084FF0A0
:100C800080401549086040F2E7311348C160C0F860
:100C90000480002101618160816100F091FF0646BE
:100CA00096B90D4800F0C0FF06466EB91C2000F052
:100CB00041F8102C07D2002221461C2000F04AF8EF
:100CC0000648046000E00126304608B0BDE8F08127
:100CD0000010024040420F00900000200800002059
:100CE00008B500BF1148806940F001000F498861D4
:100CF0000846806900F00100009000BF00BF00BFFF
:100D00000846C06940F08050C8610846C06900F0DC
:100D10008050009000BF00BF00BF0549486820F028
:100D2000E06040F00070486000BF08BD0010024065
:100D30000000014001460846002809DB00F01F03BF
:100D400001229A4043099B0003F1E023C3F80021EC
:100D500000BF70472DE9F05F80460D46164600271C
:100D600001F07CFF074639462A46334601F007006A
:100D7000C0F1070ABAF1040F02D94FF0040A01E0EA
:100D8000C0F1070AD14600F1040ABAF1070F02D2F6
:100D90004FF0000A01E0A0F1030AD4464FF0010A27
:100DA0000AFA09FAAAF1010A0AEA020A0AFA0CFA8C
:100DB0004FF0010B0BFA0CFBABF1010B0BEA030B31
:100DC0004AEA0B042146404601F050FFBDE8F09F7F
:100DD00000BF00F00702064B19684FF6FF031940E9
:100DE000044B0B4343EA0221014B196000BF7047DB
:100DF0000CED00E00000FA0501200149086270478F
:100E000000000E422DE9F04706464FF0000800258D
:100E100000270024A146012E31D0022E56D0102EDC
:100E20005FD132484468006800F0807008B33048F1
:100E3000C4F38341475C04F4803078B12B484068A8
:100E4000C0F340402B4911F8008004F4803040B1D9
:100E50002948B0FBF8F000FB07F502E0274807FB44
:100E600000F52248406800F48000B0F5800F01D101
:100E7000A94603E068000321B0FBF1F932E01B480A
:100E8000046A04F44070B0F5807F05D104F00200DC
:100E900010B14FF4004918E004F44070B0F5007F41
:100EA00007D11248406A00F0020010B149F64049EB
:100EB0000BE004F44070B0F5407F06D10B480068A9
:100EC00000F4003008B14FF224490BE000F0AEF915
:100ED00006494968C1F38131491C4900B0FBF1F969
:100EE00000E000BF00BF4846BDE8F08700100240A8
:100EF0001A3C00082A3C000800127A0000093D0054
:100F0000F8B5044600260025207800F001000028EE
:100F10006BD000274348C06900F0805070B900BF13
:100F20004048C06940F080503E49C8610846C069E9
:100F300000F08050009000BF00BF01273A480068D1
:100F400000F48070B0B93848006840F480703649C9
:100F50000860FFF747FE064606E0FFF743FE801BEA
:100F6000642801D90320F8BD2F48006800F4807080
:100F70000028F2D02B48006A00F440752DB3A088F9
:100F800000F44070A84220D02648006A20F4407542
:100F9000012026490860002008602248056205F00B
:100FA000010090B1FFF71EFE064608E0FFF71AFEAB
:100FB000801B41F28831884201D90320D3E71948C8
:100FC000006A00F002000028F0D01648006A20F401
:100FD00040706168084313490862012F04D1084634
:100FE000C06920F08050C86100BF207800F0020086
:100FF000022807D10B48406820F44040A16808430C
:1010000008494860207800F01000102807D10548F2
:10101000406820F48000E1680843024948600020ED
:10102000A1E700000010024000700040400442426E
:1010300070B504460D460CB9012070BD5A480068D1
:1010400000F00700A8420ED25748006820F00700C1
:101050002843554908600846006800F00700A84288
:1010600001D00120E9E7207800F0020002281DD11C
:10107000207800F00400042805D14C48406840F472
:10108000E0604A494860207800F00800082805D14F
:101090004648406840F460504449486043484068CE
:1010A00020F0F000A168084340494860207800F033
:1010B000010078B36068012806D13C48006800F45C
:1010C000003090B90120B8E76068022806D137489F
:1010D000006800F0007040B90120AEE733480068B6
:1010E00000F0020008B90120A7E73048406820F06E
:1010F0000300616808432D494860FFF773FD064609
:1011000009E0FFF76FFD801B41F28831884202D968
:10111000032092E707E02548406800F00C00616872
:10112000B0EB810FEDD12048006800F00700A84225
:101130000ED91D48006820F0070028431A490860AE
:101140000846006800F00700A84201D0012074E7BB
:10115000207800F00400042807D11448406820F4E7
:10116000E060E168084311494860207800F0080019
:10117000082808D10D48406820F46050216940EAF1
:10118000C1000A49486000F061F808494968C1F3A4
:101190000311074A515CC8400649086006480068C8
:1011A000FFF746FD002048E7002002400010024003
:1011B0002C3C000810000020080000200F220260D4
:1011C0000D4A526802F0030242600B4A526802F074
:1011D000F0028260084A526802F4E062C260064A85
:1011E000526802F46052D2080261044A126802F0A6
:1011F00007020A6070470000001002400020024011
:1012000001480068704700001000002000B5FFF79B
:10121000F7FF04494968C1F30221034A515CC84001
:1012200000BD0000001002403C3C000800B5FFF784
:10123000E7FF04494968C1F3C221034A515CC84031
:1012400000BD0000001002403C3C000870B50021C9
:101250000022002400230020134D696801F00C05D2
:10126000F5B1042D02D0082D19D101E00F4819E085
:101270000F4DC1F38346AB5D01F4803555B10A4D86
:101280006D68C5F340450B4E725D084D5D43B5FB7F
:10129000F2F402E0084D03FB05F4204602E000BF33
:1012A000024800BF00BF70BD0010024000127A006B
:1012B000083C0008183C000800093D00F8B5044649
:1012C0000CB90120F8BD207800F00100002878D08A
:1012D000F848406800F00C0004280CD0F54840683D
:1012E00000F00C00082811D1F248406800F480306A
:1012F000B0F5803F0AD1EF48006800F400300028C4
:101300005FD0606800285CD10120DBE700BF606827
:10131000B0F5803F06D1E748006840F48030E549E9
:10132000086028E0606858B9E248006820F480301E
:10133000E04908600846006820F4802008601AE050
:101340006068B0F5A02F0BD1DA48006840F4802027
:10135000D84908600846006840F4803008600AE018
:10136000D448006820F48030D249086008460068FC
:1013700020F48020086000BF606888B1FFF732FC6D
:10138000054606E0FFF72EFC401B642801D9032028
:1013900098E7C848006800F400300028F2D010E058
:1013A000FFF720FC054606E0FFF71CFC401B642805
:1013B00001D9032086E7BF48006800F40030002808
:1013C000F2D1207800F00200022857D1B9484068D5
:1013D00000F00C0050B1B748406800F00C0008283D
:1013E00018D1B448406800F4803098B9B14800681A
:1013F00000F0020020B12069012801D0012061E73E
:10140000AC48006820F0F800616940EAC100A949D1
:10141000086033E02069E8B10120A7490860FFF7C0
:10142000E1FB054606E0FFF7DDFB401B022801D982
:10143000032047E79F48006800F002000028F2D030
:101440009C48006820F0F800616940EAC1009949B1
:10145000086013E0002098490860FFF7C3FB0546C9
:1014600006E0FFF7BFFB401B022801D9032029E754
:101470009048006800F002000028F2D1207800F0C7
:10148000080008282DD1A069B8B101208B49086057
:10149000FFF7A8FB054606E0FFF7A4FB401B022868
:1014A00001D903200EE78348406A00F002000028BB
:1014B000F2D0012001F052F913E000207F490860CA
:1014C000FFF790FB054606E0FFF78CFB401B022868
:1014D00001D90320F6E67748406A00F002000028B0
:1014E000F2D1207800F00400042873D1002771485D
:1014F000C06900F0805070B900BF6E48C06940F00C
:1015000080506C49C8610846C06900F08050009066
:1015100000BF00BF01276A48006800F48070B0B9BE
:101520006748006840F4807065490860FFF75AFB1F
:10153000054606E0FFF756FB401B642801D903204F
:10154000C0E65F48006800F480700028F2D000BF59
:10155000E068012806D15748006A40F0010055496B
:10156000086227E0E06858B95248006A20F001009C
:10157000504908620846006A20F00400086219E039
:10158000E06805280BD14B48006A40F00400494947
:1015900008620846006A40F0010008620AE0454817
:1015A000006A20F00100434908620846006A20F002
:1015B0000400086200BFE068A0B1FFF713FB054616
:1015C00009E0FFF70FFB401B41F28831884202D946
:1015D000032077E622E03748006A00F00200002886
:1015E000EFD012E0FFF7FEFA054608E0FFF7FAFA3F
:1015F000401B41F28831884201D9032062E62D4820
:10160000006A00F002000028F0D1012F05D129481E
:10161000C06920F080502749C86100BFE069C8B3A5
:101620002448406800F00C00082860D0E0690228D7
:1016300048D1002020490866FFF7D4FA054606E0A5
:10164000FFF7D0FA401B022801D903203AE61948D7
:10165000006800F000700028F2D1206AB0F5803FE9
:1016600007D11448406820F40030A16808431149AC
:101670004860D4E9080108430E49496821F474110F
:1016800008430C49486001200B490866FFF7AAFA95
:10169000054607E03DE0FFF7A5FA401B022801D907
:1016A00003200FE60348006800F000700028F2D025
:1016B0002FE000000010024000004242800442423D
:1016C00000700040002014490866FFF78BFA0546B9
:1016D00006E0FFF787FA401B022801D90320F1E555
:1016E0000E48006800F000700028F2D111E0E069B7
:1016F000012800D1E6E50948466806F48031206AF1
:10170000814204D106F47011606A814201D0012047
:10171000D8E50020D6E5000000004242001002405B
:1017200010B5034600220020024A02EB8102146831
:10173000A0B210BD006C004010B503460020034865
:1017400000EB810094B2046010BD0000006C00400A
:10175000F8B505460C4616460020009005B10CB9B8
:101760000120F8BD00226946284600F01AF808B1A9
:101770000120F6E7287B2070E87BE070687B6070D2
:10178000A87BA0705EB1E07801F007F8E0706078A7
:1017900001F003F86070A07800F0FFFFA070002057
:1017A000DFE72DE9F04780460C46914600250026EC
:1017B000AA460027B8F1000F00D014B90120BDE8F7
:1017C000F087D8F800004068C0F3800008B101201D
:1017D000F5E7404601F0A8F805464FF46160B5FB17
:1017E000F0F7B5FBF0F100FB11503C21B0FBF1F03C
:1017F00060704FF46160B5FBF0F100FB11503C21CB
:10180000B0FBF1F201FB1200A070182F39D31820A1
:10181000B7FBF0FAB7FBF0F100FB11702070404607
:1018200001F076F80646701C18B1AE4201D9761B5D
:1018300001E04FF0FF360AEB4A00C000C0EB401158
:10184000C1EB0020A5EB00152946404601F0DFF86A
:1018500008B10120B3E7701C38B12E443146404630
:1018600001F0BEF840B10120A9E73146404601F041
:10187000B7F808B10120A2E75146404600F09AFFB0
:1018800000E02770B9F1000F0BD0207800F085FF41
:101890002070607800F081FF6070A07800F07DFF1C
:1018A000A07000208BE7000070B5044600250CB93D
:1018B000012070BD607C20B900202074204600F01B
:1018C00053F802206074204600F058F918B1042043
:1018D00060740120EDE7204600F0C7FF18B1042036
:1018E00060740120E5E72068406820F00700216867
:1018F0004860A06828B11B48006820F00100194921
:1019000008601848001F006820F46070A168084350
:101910001449091F08606068401C08B1656809E047
:101920000120FFF76FFA05461DB9042060740120FD
:10193000BFE76D1EC5F3034021688860A8B2216827
:10194000C860204600F0AEFF18B10420607401208A
:10195000AFE70021E17301216173A173012060747D
:101960000020A6E7306C004038B504460B492068DB
:10197000884212D1FFF740FA00BF0948C06940F021
:1019800000600749C8610846C06900F00060009027
:1019900000BF00BF01200349086038BD0028004097
:1019A000001002403C0442422DE9F04704460D4637
:1019B000904600260027B14604B115B90120BDE8C4
:1019C000F08700BF207C012801D10220F7E7012029
:1019D000207400BF02206074B8F1000F06D1E978CE
:1019E000E17369786173A978A1730BE0E87800F07E
:1019F000C9FEE073687800F0C5FE6073A87800F057
:101A0000C1FEA073A27B617BE07B00F0A7FF207387
:101A1000207B2870204600F087FF06464FF4616067
:101A2000B6FBF0F9B9F1180F2FD91820B9FBF0F077
:101A300000EB4000C000C0EB4011C1EB0020A6EB62
:101A400000163146204600F0E2FF38B104206074F1
:101A500000BF0020207400BF0120B0E7204600F046
:101A600057FF0746781C80B1B7420ED20B48074497
:101A70003946204600F0B4FF38B10420607400BF3E
:101A80000020207400BF012099E70120607400BF8E
:101A90000020207400BF00BF91E7000080510100CA
:101AA0002DE9F04704460D4690460026002704B174
:101AB00015B90120BDE8F08700BF207C012801D1C5
:101AC0000220F7E70120207400BF02206074B8F103
:101AD000000F0BD128784FF4616148436978C1EB5E
:101AE000011100EB8100A978461812E0287800F077
:101AF00049FE4FF4616100FB01F9687800F042FE95
:101B0000C0EB001009EB8009A87800F03BFE09EB60
:101B100000063146204600F07AFF38B10420607498
:101B200000BF0020207400BF0120C3E72068406888
:101B300020F0050021684860204600F0E9FE0746D5
:101B4000781C80B1B7420ED20B4807443946204674
:101B500000F046FF38B10420607400BF00202074FC
:101B600000BF0120A6E70120607400BF00202074A0
:101B700000BF00BF9EE700008051010070B5044621
:101B800000250CB9012070BD2068406820F00800D5
:101B900021684860FFF726F8054607E0FFF722F8BE
:101BA000401BB0F57A7F01D90320ECE7206840683C
:101BB00000F008000028F1D00020E4E770477047EB
:101BC00010B504460CB9012010BD94F83D0028B9A9
:101BD000002084F83C00204600F025F8022084F81C
:101BE0003D00211D206800F07FFF012084F84600A1
:101BF00000BF84F83E0001213F20015540200155DF
:101C00004120015500BF00BF012084F8420043205D
:101C10000155442001554520015500BF012084F89D
:101C20003D000020D0E77047014691F83D000128B3
:101C300001D001207047022081F83D000868C0688B
:101C400040F001000B68D860104B0868984207D03C
:101C50000868B0F1804F03D00D4B086898420CD152
:101C60000868806800F00702062A0CD0086800683F
:101C700040F001000B68186005E00868006840F05B
:101C800001000B6818600020D4E70000002C014020
:101C900000040040704770B504462068C56820689D
:101CA000066906F00200022819D105F00200022898
:101CB00015D1401F216808610120207720688069C4
:101CC00000F0030018B12046FFF7E4FF05E02046CE
:101CD00000F097F8204600F095F80020207706F0F5
:101CE0000400042819D105F00400042815D1C043CC
:101CF00021680861022020772068806900F4407024
:101D000018B12046FFF7C6FF05E0204600F079F83D
:101D1000204600F077F80020207706F00800082819
:101D200019D105F00800082815D1C04321680861C1
:101D3000042020772068C06900F0030018B1204615
:101D4000FFF7A8FF05E0204600F05BF8204600F012
:101D500059F80020207706F01000102819D105F05E
:101D60001000102815D1C043216808610820207791
:101D70002068C06900F4407018B12046FFF78AFF60
:101D800005E0204600F03DF8204600F03BF800203A
:101D9000207706F0010048B105F0010030B16FF086
:101DA000010021680861204600F02DF806F080004F
:101DB000802809D105F08000802805D1C043216822
:101DC00008612046FFF7FAFE06F04000402809D1DE
:101DD00005F04000402805D1C04321680861204635
:101DE00000F01AF806F02000202809D105F02000A4
:101DF000202805D1C043216808612046FFF7DFFE97
:101E000070BD7047704710B504462068B0F1804F30
:101E100001D1FEF7EDFE10BD704700BFFEE70000E8
:101E200000B585B00020019002900390049000BF9F
:101E30002D48806940F010002B4988610846806970
:101E400000F01000009000BF00BF00BF084680698E
:101E500040F0200088610846806900F02000009072
:101E600000BF00BF00BF0846806940F004008861E1
:101E70000846806900F00400009000BF00BF00BF6A
:101E80000846806940F0080088610846806900F0D3
:101E90000800009000BF00BF012251031348FEF765
:101EA0009BFE01224FF440711148FEF795FE4FF45E
:101EB0000050019001200290002003900220049025
:101EC00001A90A48FEF7F0FC4FF440700190112080
:101ED0000290012003900320049001A90448FEF71A
:101EE000E3FC05B000BD00000010024000100140FE
:101EF000000C01401FB500200290019000BF554822
:101F0000C06940F000605349C8610846C06900F0EC
:101F10000060009000BF00BF00BF0846C06940F0ED
:101F20008050C8610846C06900F08050009000BF32
:101F300000BF4948494908604FF0FF3048600846F3
:101F4000FFF7B2FC08B1FEF7ACFC01214348FFF7F4
:101F5000E7FB4AF2A55188424CD015208DF80800C5
:101F600020208DF8090000208DF80A00002202A927
:101F70003A48FFF795FD08B1FEF793FC04208DF871
:101F8000040002208DF805001A208DF806008DF857
:101F90000700002201A93148FFF706FD08B1FEF74E
:101FA00080FC2E480068006840F001002B49096859
:101FB0000860019803904AF2A55201212748FFF7D3
:101FC000BBFB9DF80F2002212448FFF7B5FB9DF8CD
:101FD0000D2003212148FFF7AFFB9DF80E200421BF
:101FE0001E48FFF7A9FB9DF80C2005211B48FFF7B1
:101FF000A3FB2DE002211948FFF792FBC0B28DF838
:102000000F0003211548FFF78BFBC0B28DF80D00C0
:1020100004211248FFF784FBC0B28DF80E000521A1
:102020000E48FFF77DFBC0B28DF80C0003980190BD
:10203000002201A90948FFF7B7FC08B1FEF731FCFF
:1020400006480068006840F001000449096808601B
:102050001FBD000000100240002800407C0000204E
:1020600000BFFEE710B5012000F050F8012000F09D
:1020700059F810BD10B54FF400710248FEF79AFDF3
:1020800010BD0000000C014010B5012000F04AF81E
:10209000012000F03BF8FFF7EDFF0446002000F0C0
:1020A00035F8204610BD70B50546002411E08021AA
:1020B0002141294009B1012100E00021084600F03A
:1020C00031F8012000F022F8002000F01FF8601C19
:1020D000C4B2082CEBDB70BD10B5012000F022F873
:1020E000012000F013F8002000F01CF8002000F0A0
:1020F0000DF810BD10B5002000F014F8012000F01C
:1021000005F8012000F00EF810BD000010B50446DF
:1021100022464FF480710248FEF75EFD10BD0000BC
:10212000000C014010B5044622464FF400710248ED
:10213000FEF752FD10BD0000000C014010B58EB03E
:10214000002001900090002201A91D48FFF729FB03
:10215000002269461A48FFF7FBFA9DF80300643035
:1021600007909DF80100401E06909DF80200059022
:102170009DF8040004909DF8050003909DF806006A
:10218000029002A8FEF763F90D900DA8FEF73AF948
:1021900004462C22214602A8FEF7DBF8079800F23D
:1021A0006C70084908800698401C48800598888013
:1021B0000498C88003980881029848810EB010BD29
:1021C0007C000020D804002000BFFEE700200CE0C7
:1021D000002106E00022064B03EBC0135A544A1CB0
:1021E000D1B28029F6DB411CC8B20828F0DB704769
:1021F000D80000202DE9F04304460D4616461F4640
:10220000284630E0234629E04FEAE07C00EB5C7C86
:102210004FEAEC0CDFF8588008EBCC1C1CF803C02C
:1022200002464FEAE07800EB58784FEAE808A0EB66
:10223000C8094FF0010808FA09F82CEA080C014611
:102240004FEAE07800EB58784FEAE808DFF8209092
:1022500009EBC81808F803C0591CCBB2A119994260
:10226000D2DC411CC8B2E9198142CBDCBDE8F08365
:10227000D800002070B502460846CC1701EB547414
:10228000E410A1EBC4050124AC400B46CD1701EBD3
:102290005575ED10024E06EBC515AC5470BD00002F
:1022A000D80000202DE9F84304460D4616461F4687
:1022B000DDF82090B9F1000F08D001203B463246EE
:1022C00029460090204600F029F825E0A0460DE0C0
:1022D00029464046FFF7CEFFE819401EC1B24046EE
:1022E000FFF7C8FF08F1010000F0FF08A019404502
:1022F000EEDCA8460DE041462046FFF7BBFFA119E2
:10230000491EC8B24146FFF7B5FF08F1010000F0D1
:10231000FF08E8194045EEDCBDE8F8832DE9F047F9
:1023200004460D4616469C46089F28465EE0224617
:1023300057E07F2A53DC3F2851DC47B34FEAE0786F
:1023400000EB58784FEAE808DFF8AC9009EBC818C2
:1023500018F8028003464FEAE07900EB59794FEA1A
:10236000E909A0EBC90A4FF0010909FA0AF948EA9C
:10237000090801464FEAE07900EB59794FEAE9098B
:10238000DFF874A00AEBC91909F8028027E04FEAC8
:10239000E07800EB58784FEAE808DFF85C9009EB4A
:1023A000C81818F8028003464FEAE07900EB597923
:1023B0004FEAE909A0EBC90A4FF0010909FA0AF945
:1023C00028EA090801464FEAE07900EB59794FEA1B
:1023D000E909DFF824A00AEBC91909F80280511CA9
:1023E000CAB2A1199142A4DC411CC8B205EB0C0190
:1023F00081429CDCBDE8F087D800002010B5FFF7D3
:1024000031FEAE2000F076F9D52000F073F980207F
:1024100000F070F9A82000F06DF93F2000F06AF993
:10242000D32000F067F9002000F064F9402000F0AC
:1024300061F9A12000F05EF9C82000F05BF9DA2014
:1024400000F058F9122000F055F9812000F052F9FF
:10245000CF2000F04FF9D92000F04CF9F12000F026
:1024600049F9DB2000F046F9302000F043F9A420C0
:1024700000F040F9A62000F03DF98D2000F03AF977
:10248000142000F037F9AF2000F034F910BD70B51A
:1024900004460D4604F00F0000F02CF9102141EA2B
:1024A000141000F027F945F0B00000F023F970BDDA
:1024B000F8B506460F4614461D46062D0ED1A4F16A
:1024C000200000EB40000D4901EB400008230622EC
:1024D00039460090304600F015F80DE0082D0BD17C
:1024E000A4F12000064901EB00100F230822394611
:1024F0000090304600F006F8F8BD000034420008B5
:10250000443C00082DE9F04705460C4616461F4698
:10251000DDF820803B46324621462846FFF76AFE1A
:10252000002067E0002161E022464FEAE47C04EBF2
:102530005C7C00EBEC0CDFF8D49009EBCC1C05EBD9
:1025400001091CF809C023464FEAE47904EB5979E4
:102550004FEAE909A4EBC90900FB061A18F80AA01A
:102560000AFA09FA4CEA0A0C4FEAE47904EB5979C1
:1025700000EBE909DFF894A00AEBC91905EB010AA1
:1025800009F80AC04FEAE47C04EB5C7C00EBEC0C3D
:102590000CF1010CDFF8749009EBCC1C05EB010980
:1025A0001CF809C04FEAE47904EB59794FEAE909CC
:1025B000A4EBC909C9F1080900FB061A18F80AA01A
:1025C0004AFA09FA4CEA0A0C4FEAE47904EB597921
:1025D00000EBE90909F10109DFF830A00AEBC9199C
:1025E00005EB010A09F80AC04A1CD1B2B1429BDBD3
:1025F000411CC8B2791ECA1701EB5272012303EBCA
:10260000E20282428EDCBDE8F0870000D8000020A4
:102610002DE9F05F8046894616461C46DDF828A065
:1026200004F1010B5846FDF71FFE054600270DE09B
:102630000A20B6FBF0F100FB11603030611EC91BAF
:1026400068540A20B6FBF0F6781CC7B2A742EFDB4D
:102650000020285553462A464946404600F005F8D2
:102660002846FDF730FEBDE8F09F2DE9F041064613
:10267000884615461F46002409E02A5D04FB0761D1
:10268000C8B23B464146FFF713FF601CC4B2285D49
:102690000028F2D1BDE8F0812DE9F04106460C4654
:1026A00015462046FDF736FEC7B207FB05F1C1F11E
:1026B000800000EBD071C1F347082B46224631461B
:1026C0004046FFF7D2FFBDE8F081000010B50024BE
:1026D0000BE021460020FFF7DAFE054901EBC410AC
:1026E000802100F01DF8601CC4B2082CF1DB10BD85
:1026F000D800002010B50446FFF7EEFC7820FFF765
:10270000D2FCFFF7C1FC0020FFF7CDFCFFF7BCFCBB
:102710002046FFF7C8FCFFF7B7FCFFF7EBFC10BD46
:1027200070B505460E46FFF7D7FC7820FFF7BBFCD7
:10273000FFF7AAFC4020FFF7B6FCFFF7A5FC00243A
:1027400006E0285DFFF7AFFCFFF79EFC601CC4B2FB
:10275000B442F6DBFFF7CEFC70BD000008B50849B7
:102760000968C9084FF47A72B1FBF2F14143009154
:1027700000BF00BF00994A1E00920029F9D108BD90
:1027800010000020014600BF080900EB8000420055
:1027900001F00F001044C0B270470146002203E070
:1027A000521CA1F10A00C1B20A29F9D2100741EA6C
:1027B000106070472DE9F047064688460027002440
:1027C0000025A146F77B747BB57B00BF40E0012C60
:1027D0000BD0032C09D0052C07D0072C05D0082CD2
:1027E00003D00A2C01D00C2C0CD11F2D01D26D1C52
:1027F0002CE00C2C02D0641C012527E001240125CB
:102800007F1C23E0042C05D0062C03D0092C01D01A
:102810000B2C06D11E2D01D26D1C17E0641C012566
:1028200014E0022C12D11C2D01D26D1C0EE01C2DC7
:1028300008D1B8B200F053F808B16D1C06E0641C72
:10284000012503E01D2D01D1641C012509F10109B9
:10285000C145BCD3F7737473B573EAB2E1B23846BD
:1028600000F07CF83073BDE8F08770B504460025B1
:10287000FEF7B8F9054607E0FEF7B4F9401BB0F5DE
:102880007A7F01D9032070BD2068406800F02000E5
:102890000028F1D02068406840F0100021684860AE
:1028A0000020F0E770B5044600252068406820F05D
:1028B000100021684860FEF795F9054607E0FEF72D
:1028C00091F9401BB0F57A7F01D9032070BD2068D3
:1028D000406800F020000028F1D00020F6E7014613
:1028E00001F0030008B1002070476420B1FBF0F252
:1028F00000FB121008B10120F6E74FF4C870B1FBDD
:10290000F0F200FB121008B90120EDE70020EBE720
:102910000146002200230868006A82B20868406A03
:1029200083B243EA0240704730B5014600220023DB
:10293000002400200D68AD69AAB20D68ED69ACB243
:102940000D68AD69ABB29A4205D00D68ED6963F3CD
:102950001F45284601E044EA024030BDF0B5044678
:102960000B460021002504F5FA61032B1BD2C3EBB3
:10297000C30000EB03100926B0FBF6F01044001D65
:102980004618481E06EB90066427B0FBF7F0361A8F
:10299000481EBF00B0FBF7F030440726B0FBF6F747
:1029A00006FB17051AE0C3EBC30000EB0310092672
:1029B000B0FBF6F01044001D084400EB91006426C3
:1029C000B1FBF6F6801B4FF4C876B1FBF6F6304447
:1029D000801E0726B0FBF6F706FB1705E8B2F0BD30
:1029E00070B504460D4600262046FFF73EFF08B1AD
:1029F00001260AE0280C21680862A8B22168486212
:102A00002046FFF74FFF00B10126304670BD70B57C
:102A100004460D4600262046FFF727FF08B1012691
:102A20000AE0280C21688861A8B22168C8612046A4
:102A3000FFF738FF00B10126304670BD10B500F039
:102A400045FF012801D000F00BFF10BD00B593B089
:102A5000282109A8FDF7AFFC142104A8FDF7ABFC61
:102A600000200090019002900390052009904FF4FF
:102A700080300A9000200B9001200C900D900220D5
:102A80001090C10311914FF4E011129109A8FEF7C3
:102A900015FC08B1FDF705FF0F20049002200590FA
:102AA000002006904FF480600790002008900221DB
:102AB00004A8FEF7BDFA08B1FDF7F3FE012000906F
:102AC000000201906846FEF71BFA08B1FDF7E9FE27
:102AD00013B000BD7047000010B50248FFF7DBF8E7
:102AE00010BD00009000002010B50268194B9842FC
:102AF00005D0B0F1804F02D0174B984203D122F09D
:102B000070024B681A43134B984205D0B0F1804FC6
:102B100002D0114B984203D122F44072CB681A4381
:102B200022F080034C6943EA040202608B68C362AE
:102B30000B688362074B984201D10B690363012341
:102B40004361036903F001031BB1036923F001032F
:102B5000036110BD002C01400004004008B502E0F4
:102B60000A2000F033FD354800780028F8D063E0F3
:102B7000FFF7E4FAFFF72AFB082331A201210846F8
:102B8000FFF773FD082000902F48028804230121DD
:102B90003120FFF73DFD08232CA201215120FFF732
:102BA00064FD082000902848428802230121592012
:102BB000FFF72EFD082325A201216920FFF755FD0F
:102BC0000820009020488288022301217120FFF70D
:102BD0001FFD08231EA211210120FFF746FD08203A
:102BE00000901948C288022311213120FFF710FDFF
:102BF000082314A211214120FFF737FD082000907F
:102C000011480289022311214920FFF701FD082301
:102C10000CA211215920FFF728FD082000900A4836
:102C20004289022311216120FFF7F2FCFFF74EFDDC
:102C30004FF47A7000F0CAFC9AE70000740000209C
:102C4000446174653A000000D80400202D000000A3
:102C500054696D653A00000000BFFEE70248006855
:102C6000C0F30220704700000CED00E010B5002812
:102C700004DB0A07130E054A135406E00A07140E74
:102C8000034A00F00F031B1FD45410BD00E400E002
:102C900018ED00E01CB5FDF7B7FFFFF7D7FEFFF713
:102CA000BFF8FFF727F9FFF7A9FBFFF78FFA02201C
:102CB00000F0A2FD012807D008230BA2002108463E
:102CC000FFF7D3FCFFF702FD0A4801210023802211
:102CD000CDE9001008A1094800F0DCFDFDF7CAFDB0
:102CE00000F004FD00BFFEE7416E696D204661699A
:102CF0006C210000000000204C454400893400088D
:102D00002DE9F04705460E46294807682948D0F8BE
:102D100000802948D0F8009028480068001D00F085
:102D200001FB50B92548006890F82C10012088401C
:102D300023490968814322480160681CE0B9DEB17B
:102D400000BF204948681D49096888601B4982689E
:102D50000968CA6019490968091D826851601749E4
:102D60000968091D8160174A144909684A611146BA
:102D70000968491C116018E07C191048006844601B
:102D8000BC4206D20D480168091D484600F0A4FB6C
:102D90000BE00A480168091D404600F09DFB0A4807
:102DA0000068844201D208480460BDE8F087000052
:102DB00028000020180000201C0000201400002023
:102DC0002C000020980500204400002010B5044687
:102DD00000F0A8FB32480068401C314908603148C7
:102DE000006840B92F4804600846006801280DD1EA
:102DF00000F07AF90AE02C48006838B929480068E0
:102E0000C06AE16A884201D8264804602748006801
:102E1000401C2649086000BF94F82C10012088400F
:102E20002349096808432249086000BFE16A01EBB1
:102E30008101204A02EB81014868A0608268E2605B
:102E4000211D826851608160E16A01EB8101194AAC
:102E500002EB81026261E16A01EB8101154A52F8DD
:102E60002110491CE26A02EB8202124B43F8221045
:102E700000BF00BF00F068FB0B48006878B100BFDE
:102E800008480068C06AE16A884207D24FF0805063
:102E900009490860BFF34F8FBFF36F8F00BF10BDAC
:102EA00024000020140000203000002040000020FA
:102EB0002C000020E404002004ED00E010B516E032
:102EC00000F030FB0C48C068C468201D00F02AFAEE
:102ED0000A480068401E0949086009480068401E09
:102EE0000749086000F030FB204600F06CF8044809
:102EF00000680028E4D110BD8405002024000020D3
:102F000020000020F0B587B001260027002408E04B
:102F100012A0005D03A9085503A8005D00B902E0F6
:102F2000641C102CF4DB00BF002510E00D4F0E4890
:102F300000EB850000210B468022CDE9001003A99B
:102F4000384600F0A7FC064606B902E06D1C012DCC
:102F5000ECDB00BF304607B0F0BD000049444C45F3
:102F60000000000045300008480000202DE9FF5F08
:102F70000746884616469946DDE90EABB00000F0DC
:102F80003FF9054675B14C2000F03AF904462CB1E2
:102F90004C212046FDF70FFA256304E0284600F097
:102FA000E3FA00E0002454B100204B46324641468B
:102FB000CDE900ABCDE90240384600F057F8204695
:102FC00004B0BDE8F09F10B50446206B00F0CCFAC9
:102FD000204600F0C9FA10BD30B54FF480531448B4
:102FE00000F007042CB1C01D20F00700104C041B9A
:102FF0001B1B104C206000240E4D6C60C218083A58
:1030000022F007020C4C226000240B4D2D686C60EE
:10301000094D2D682C600146541A4C60064C2468FA
:103020000C60064D4C682C60054D4C682C6030BD22
:10303000AC050020540000205C000020640000204B
:103040006000002000BFFFF739FF06480068012834
:10305000F9D94FF0805004490860BFF34F8FBFF398
:103060006F8FF0E7E404002004ED00E02DE9FF5F3E
:1030700080460E469146DDE90E7A109CA9F10100CA
:10308000216B01EB800B2BF0070B7EB1002507E0D5
:10309000715D04F134004155705D00B902E06D1CB2
:1030A000102DF5D300BF002143200155052F00D37B
:1030B0000427E762201D00F00CFA04F1180000F06C
:1030C00008FA2461C7F10500A061646241465846D0
:1030D000039A00F015F92060BAF1000F01D0CAF888
:1030E0000040BDE8FF9F000010B5002407E004EB9E
:1030F00084010F4A02EB810000F0DEF9641C052C0C
:10310000F5D30C4800F0D8F90B4800F0D5F90B487E
:1031100000F0D2F90A4800F0CFF90A4800F0CCF9E3
:1031200004480949086004480849086010BD0000C7
:10313000E4040020480500205C0500207005002004
:103140008405002098050020180000201C000020A5
:1031500010B50146164800E0006803688B42FBD3B7
:103160000246436813448B4204D143684C682344AD
:10317000436001460A464B6813440468A34211D1D8
:103180000C4C03682468A34208D04B680468646848
:1031900023444B6003681B680B6005E0054B1B680C
:1031A0000B6001E003680B60884200D0016010BD35
:1031B000540000205C00002009480068006808B93D
:1031C000012000E0002020B14FF0FF3005490860E9
:1031D00005E003480068C06800680249086070475D
:1031E000180000204400002000BFBF2080F3118899
:1031F000BFF34F8FBFF36F8F00BF00BFFEE700002C
:103200002DE9F04704464FF00009DCB114F1090F35
:1032100001D9012000E0002098B9083404F007002B
:1032200080B104F00700C0F10808C8F1FF30A042E7
:1032300001D2012000E0002008B9444402E000244B
:1032400000E0002400F09CFA2848006808B9FFF765
:10325000C3FE012000EBE470002841D0002C3FD0D9
:103260002348006884423BD8224E3046056801E07E
:103270002E462D686868A04202D228680028F7D13F
:103280001A48006885422BD0306800F10809286888
:1032900030606868001B102807D92F196868001B68
:1032A00078606C6030683860376011496868096818
:1032B000081A0F490860084600680F4909688842E3
:1032C00003D20B4800680C490860686840F0004071
:1032D00068600020286009480068401C07490860B1
:1032E00000F0D4FB4846BDE8F08700005C000020F9
:1032F00060000020540000206400002068000020CE
:10330000001F4FF080730360001F21F00103036072
:10331000001F034B03601438026020387047000020
:10332000E931000801460A69D1E901309860D1E924
:10333000010358605068884201D1886850600020BD
:1033400008611068401E1060106870472DE9FC414C
:1033500000200190FEF73AFFFFF7B8F92426082372
:103360002DA210213046FFF780F9FFF7AFF9642056
:1033700000F02CF900200A2350222421009018206C
:10338000FEF790FFFFF7A2F9642000F01FF9002478
:103390003DE001A8FCF7BEFF8021A1EBC000C0F317
:1033A00047050A2C08DA0820012322463221009022
:1033B0002846FFF72DF90BE00A2C09DB642C07DA0D
:1033C000082002232246322100902846FFF720F9E8
:1033D00005F11801C8B2082325223221FFF768F849
:1033E000002C0DDD4C206043642190FBF1F0C7B24E
:1033F000012006233A46262100901A20FEF78EFF70
:10340000FFF764F90A2000F0E1F8601CC4B2642CF4
:10341000BFDBBDE8FC8100004C4F4144494E4700F2
:103420002DE9F04115A63046FCF774FFC5B2FEF752
:10343000CDFEFFF74BF98021A1EBC50000EBD07169
:10344000C1F347074FF0180800240EE0325D07EB88
:10345000C401C8B208234146FFF72AF8FFF736F93E
:10346000C82000F0B3F8601CC4B2AC42EEDB4FF4ED
:10347000FA7000F0ABF8BDE8F08100003247205848
:1034800049414F484549000002E00A2000F09EF8FB
:10349000074800680028F8D008E04FF400510548BC
:1034A000FDF790FB4FF4FA7000F090F8F5E700009C
:1034B000740000200010014000F1080141604FF04D
:1034C000FF31816000F10801C160016100210160EC
:1034D000704700210161704710B502460B685C1C03
:1034E0000CB9106907E002F1080000E04068446888
:1034F00024689C42FAD944684C604C68A16088609A
:1035000041600A611468641C146010BD42684A601E
:1035100093688B60936859609160086103685B1CD5
:103520000360704700BFBF2080F31188BFF34F8F47
:10353000BFF36F8F00BF03480068401C014908605B
:10354000704700007000002006480068401E0549D2
:1035500008600846006820B9002080F3118800BF89
:1035600000BF70477000002070B506463546E6B1D2
:10357000083D2C466068C00FB8B12068A8B96068E3
:1035800020F00040606000F0FBF8084960680968BE
:103590000844064908602046FFF7DAFD0448006841
:1035A000401C0349086000F071FA70BD6000002003
:1035B0006C00002000204FF0E02108618861024883
:1035C00048610720086170473F19010070B5044643
:1035D000002544B100F0D4F800212046FFF790FB0D
:1035E00000F054FA05463DB94FF080500349086099
:1035F000BFF34F8FBFF36F8F70BD000004ED00E08D
:103600002DE9F04105460026FFF78CFF15B92E483D
:10361000006800E028460446201DFFF783FE88B9B5
:1036200000BFE06A00EB8000284951F8200040B953
:1036300094F82C10012088402549096881432448CA
:10364000016000BFA06A18B104F11800FFF76AFE1C
:1036500020480068401C1F4908601B4800688442DD
:1036600001D1012000E0002007461B48006858B146
:1036700057B1211D1948FFF749FF19480068401C40
:1036800017490860012606E016480068401E1549E3
:103690000860FFF791FDFFF757FF012E02D020468B
:1036A000FFF791FC0C48006858B107480068844255
:1036B00007D14FF080500C490860BFF34F8FBFF324
:1036C0006F8FBDE8F081000014000020E4040020AA
:1036D0002C00002040000020300000208405002045
:1036E000200000202400002004ED00E010B5FFF7CA
:1036F00009FC0446012C14D100BFBF2080F31188BF
:10370000BFF34F8FBFF36F8F00BF4FF0FF300649FD
:10371000086001200549086000200549086000F0A4
:1037200085F80448006810BD4400002030000020E7
:10373000280000204C00002010B50446FEF746FD8E
:1037400008220AA11820FEF7A7FFFEF7BFFF4FF4DB
:10375000FA70FFF73BFFFFF763FEFFF7F7FD01206D
:10376000064908600020FFF74BFF10BD416E696DF0
:103770006174696F6E20537461727400740000206C
:1037800002480068401C0149086070475000002052
:103790001448006818B101201349086021E0002096
:1037A0001149086000BF11480068B0FA80F0C0F10C
:1037B0001F0100BF01EB81020D4B03EB8200426849
:1037C0005268426000F108024368934201D1C26826
:1037D00042604268D268074B1A6000BF00BF1846BB
:1037E0000068704750000020380000202C000020A6
:1037F000E4040020140000203EB50446002002909E
:1038000002A800234FF4807204A1CDE900400648CD
:1038100000F040F8054628463EBD0000416E696D47
:103820006174696F6E0000003937000810B50A48EE
:10383000006840F47F00084908600846006840F0CE
:103840007F400860FFF7B6FE002004490860FCF7DF
:10385000B1FC002010BD000020ED00E07000002051
:1038600010B500BFBF2080F31188BFF34F8FBFF3A7
:103870006F8F00BF00F03AF818B14FF08050044944
:10388000086000BF002080F3118800BF10BD000059
:1038900004ED00E02DE9FC5F06460F469046994690
:1038A000DDE90CAB4B46424639463046CDE900AB2C
:1038B000FFF75CFB054625B12846FFF787FA012490
:1038C00001E04FF0FF342046BDE8FC9F0549096840
:1038D00009B9012005E00449096809B9022000E09E
:1038E0000020704730000020500000202DE9F041FA
:1038F00000275B48006800287DD15A480068451CB5
:103900005848056095B900BF5748D0F8008057481F
:103910000068554908605548C0F800805448006860
:10392000401C53490860FFF747FC00BF514800683E
:1039300085427DD300BF4C480068006808B901206B
:1039400000E0002020B14FF0FF304A4908606EE0EF
:1039500045480068C068C4686668B54202D24548F8
:10396000066064E000BF6069D4E902128A60D4E9AD
:1039700002214A60211D42688A4201D1E16841600A
:10398000002262610168491E016000BFA06AA0B107
:1039900000BFA06AD4E907128A60D4E907214A600F
:1039A00004F1180142688A4201D1216A4160002273
:1039B000A2620168491E016000BF00BF94F82C108C
:1039C000012088402C49096808432B49086000BF42
:1039D000E16A01EB8101294A02EB81014868A0609C
:1039E0008268E260211D826851608160E16A01EBBA
:1039F0008101224A00E02BE002EB81026261E16A70
:103A000001EB81011D4A52F82110491CE26A02EBC8
:103A100082021A4B43F8221000BF00BF1849E06A27
:103A20000968C96A884286D9012784E700E000BF97
:103A300013480068C06A00EB8000104951F820006C
:103A4000012800D901270F48006800B1012704E0D0
:103A50000D480068401C0C4908603846BDE8F081FC
:103A60005000002028000020180000201C0000202A
:103A70003C000020440000202C000020E404002032
:103A80001400002038000020340000202DE9F0410F
:103A900000240027FFF746FD002552480068401E1D
:103AA000504908600846006800286ED14E480068FA
:103AB00000286AD064E04D48C068C46800BFA06AAE
:103AC000D4E907128A60D4E907214A6004F1180199
:103AD00042688A4201D1216A41600022A2620168E3
:103AE000491E016000BF00BF6069D4E902128A600C
:103AF000D4E902214A60211D42688A4201D1E1686D
:103B00004160002262610168491E016000BF00BF80
:103B100094F82C100120884035490968084334493D
:103B2000086000BFE16A01EB8101324A02EB8101CA
:103B30004868A0608268E260211D826851608160EF
:103B4000E16A01EB81012B4A02EB81026261E16AC9
:103B500001EB8101274A52F82110491CE26A02EB6D
:103B60008202244B43F8221000BF00BF2249E06AC2
:103B70000968C96A884203D90120204941F8250013
:103B80001A48006810B9012001E026E00020002852
:103B900091D00CB1FFF710FB194806686EB100BF59
:103BA000FFF7A4FE18B10120144941F82500761E44
:103BB000002EF5D1002012490860104850F8250069
:103BC00058B1012700BF0C48006838070D4908604C
:103BD000BFF34F8FBFF36F8F00BFFFF7B5FC3846C1
:103BE000BDE8F08150000020240000207005002076
:103BF0002C000020E40400201400002038000020E5
:103C00003400002004ED00E0020304050607080963
:103C10000A0B0C0D0E0F101001020203040506071B
:103C200008090A0B0C0D0E0F101001020000000015
:103C3000000000000102030406070809000000005C
:103C4000010203040000000000000000000000006A
:103C500000000000000000F8000000000000003339
:103C60003000000000160E00160E000000000000DC
:103C70000000000040C07840C0784000043F0404C9
:103C80003F040400007088FC08300000001820FF8A
:103C9000211E0000F008F000E018000000211C03C5
:103CA0001E211E0000F00888700000001E21232441
:103CB00019272110000000160E000000000000006F
:103CC00000000000000000E01804020000000007EF
:103CD0001820400000020418E000000000402018F6
:103CE00007000000404080F0804040000202010FC9
:103CF00001020200000000F0000000000101011FAD
:103D000001010100000000000000000000B0700090
:103D100000000000000000000000000000010101A0
:103D2000010101010000000000000000003030002F
:103D30000000000000000000806018040060180609
:103D40000100000000E010080810E000000F102043
:103D500020100F00001010F8000000000020203F8D
:103D60002020000000700808088870000030282417
:103D700022213000003008888848300000182020B8
:103D800020110E000000C02010F8000000070424DD
:103D9000243F240000F80888880808000019212022
:103DA00020110E0000E0108888180000000F11207C
:103DB00020110E0000380808C83808000000003F35
:103DC000000000000070880808887000001C222194
:103DD00021221C0000E010080810E0000000312241
:103DE00022110F00000000C0C000000000000030E1
:103DF00030000000000000C0C0000000000080B0E3
:103E00007000000000008040201008000001020443
:103E1000081020004040404040404000040404049A
:103E20000404040000081020408000000020100856
:103E300004020100007048080808F000000000308B
:103E400036010000C030C828E810E0000718272419
:103E500023140B000000C038E0000000203C2302C7
:103E60000227382008F8888888700000203F20202A
:103E700020110E00C030080808083800071820205C
:103E80002010080008F808080810E000203F202053
:103E900020100F0008F88888E8081000203F202034
:103EA0002320180008F88888E8081000203F200028
:103EB00003000000C0300808083800000718202060
:103EC000221E020008F808000008F808203F21011F
:103ED00001213F20000808F8080800000020203FCA
:103EE0002020000000000808F8080800C08080803A
:103EF0007F00000008F888C028180800203F200133
:103F00002638200008F8080000000000203F20208C
:103F10002020300008F8F800F8F80800203F003FA3
:103F2000003F200008F830C00008F808203F2000BB
:103F300007183F00E01008080810E0000F102020CC
:103F400020100F0008F808080808F000203F2101A1
:103F500001010000E01008080810E0000F182424F8
:103F600038504F0008F8888888887000203F20006B
:103F7000030C302000708808080838000038202121
:103F800021221C00180808F8080818000000203F2B
:103F90002000000008F808000008F808001F202092
:103FA00020201F000878880000C838080000073863
:103FB0000E010000F80800F80008F800033C0700B4
:103FC000073C0300081868808068180820302C031C
:103FD000032C30200838C800C83808000000203FF3
:103FE0002000000010080808C838080020382621E2
:103FF00020201800000000FE020202000000007FE6
:1040000040404000000C30C00000000000000001F3
:104010000638C00000020202FE00000000404040DE
:104020007F0000000020100804081020000000009D
:104030000000000000000000000000008080808080
:104040008080808000020408000000000000000062
:104050000000000000008080808000000019242201
:1040600022223F2008F8008080000000003F11203D
:1040700020110E000000008080800000000E112042
:1040800020201100000000808088F800000E112020
:1040900020103F200000808080800000001F22222E
:1040A00022221300008080F0888888180020203F9A
:1040B000202000000000808080808000006B9494AD
:1040C0009493600008F8008080800000203F210069
:1040D00000203F2000809898000000000020203F32
:1040E00020200000000000809898000000C0808020
:1040F000807F000008F8000080808000203F2402BC
:104100002D302000000808F8000000000020203FAB
:10411000202000008080808080808000203F200060
:104120003F20003F008080008080000000203F2171
:1041300000203F200000808080800000001F2020A1
:1041400020201F00808000808000000080FFA120D0
:1041500020110E000000008080808000000E1120E1
:1041600020A0FF80808080008080800020203F2170
:104170002000010000008080808080000033242423
:1041800024241900008080E0808000000000001FCF
:10419000202000008080000000808000001F202080
:1041A00020103F20808080000080808000010E3041
:1041B0000806010080800080008080800F300C03A2
:1041C0000C300F0000808000808080000020312EA5
:1041D0000E312000808080000080808080818E7081
:1041E0001806010000808080808080000021302C33
:1041F0002221300000000000807C0202000000004C
:10420000003F404000000000FF00000000000000F0
:10421000FF0000000002027C800000000040403FE0
:10422000000000000080404080000080000000008E
:10423000000101000000000000000000002F00004D
:1042400000000700070000147F147F1400242A7F59
:104250002A120023130864620036495522500000D8
:104260000007000000001C224100000041221C0049
:104270000014083E08140008083E0808000000A0CA
:1042800060000008080808080000606000000020C6
:1042900010080402003E5149453E0000427F4000A4
:1042A000004261514946002141454B31001814122A
:1042B0007F10002745454539003C4A4949300001F7
:1042C0007109050300364949493600064949291E46
:1042D00000003636000000005636000000081422A8
:1042E00041000014141414140000412214080002A8
:1042F00001510906003E4955592E007C1211127CCD
:10430000007F49494936003E41414122007F4141F9
:10431000221C007F49494941007F09090901003EEB
:104320004149497A007F0808087F0000417F410029
:10433000002040413F01007F08142241007F40409F
:104340004040007F020C027F007F0408107F003E87
:104350004141413E007F09090906003E4151215E6D
:10436000007F091929460046494949310001017F6A
:104370000101003F4040403F001F2040201F003F00
:104380004038403F006314081463000708700807B2
:1043900000615149454300007F414100000204088B
:1043A0001020000041417F0000040201020400408F
:1043B0004040404000000102040000205454547862
:1043C000007F484444380038444444200038444482
:1043D000487F00385454541800087E090102001820
:1043E000A4A4A47C007F080404780000447D40005D
:1043F000004080847D00007F102844000000417F41
:104400004000007C04180478007C0804047800381C
:104410004444443800FC242424180018242418FCA4
:10442000007C0804040800485454542000043F440D
:104430004020003C4040207C001C2040201C003CD0
:104440004030403C004428102844001CA0A0A07C20
:10445000004464544C440000087F41000000007F89
:1044600000000000417F0800000804081008E4BDB7
:10447000A000008060F8074020180F08C80808282E
:104480001800010000FF00100C0340807F000106AF
:104490001800E5A5BD001010F01F10F0008082820A
:1044A000E2928A8680004022150816610000408052
:1044B0007F0000000000E4B89600202020FE2020AD
:1044C000FF202020FF20202020000000007F40400F
:1044D00047444444474040400000E7958C000000BA
:1044E00000FE929292FE929292FE00000000080856
:1044F0000484621E010001FE02040408080000009A
:104500000000FFFFFFFFFFFFFFFFFFFFFFFFFFFFB9
:10451000FFFFFFFFFFFFFFFFFFFFFFFFFFFFFFFFAB
:10452000FFFF1F1D1F1E1F1E1F1F1E1F1E1F00001F
:1045300050450008000000207C0000002801000811
:10454000CC4500087C000020BC1B00004401000892
:10455000000000000000000010000000010000004A
:1045600000127A00000000000000000000000000BF
:10457000000000000000000000000000000000003B
:10458000000000000000000000000000000000002B
:104590000000000000000000000000000400000017
:1045A000000000000000000000000000000000000B
:1045B00000000000000000000000000000000000FB
:0C45C000AAAAAAAA000000000000000047
:04000005080000ED02
:00000001FF
