:020000040800F2
:10000000E81B002029020008A5150008EF130008CE
:10001000C914000865050008011C00080000000064
:100020000000000000000000000000009101000836
:100030006905000800000000D5010008051B000844
:10004000430200084302000843020008430200087C
:10005000430200084302000843020008430200086C
:10006000430200084302000843020008430200085C
:10007000430200084302000843020008430200084C
:10008000430200084302000843020008430200083C
:10009000430200084302000843020008430200082C
:1000A000430200084302000843020008430200081C
:1000B0007D1B0008430200084302000843020008B9
:1000C00043020008430200084302000843020008FC
:1000D00043020008430200084302000843020008EC
:1000E00043020008430200084302000800F002F83F
:1000F00000F03FF80AA090E8000C82448344AAF183
:100100000107DA4501D100F034F8AFF2090EBAE880
:100110000F0013F0010F18BFFB1A43F0010318473B
:100120007433000094330000103A24BF78C878C1BB
:10013000FAD8520724BF30C830C144BF04680C60ED
:10014000704700000023002400250026103A28BF35
:1001500078C1FBD8520728BF30C148BF0B60704739
:10016000642900F0C980002070471FB51FBD10B57D
:1001700010BD00F0C2F91146FFF7F7FF01F05EFD78
:1001800000F0E0F903B4FFF7F2FF03BC00F0E4F97C
:10019000224B19680868B0E8F00F80F30988BFF3B4
:1001A0006F8F4FF0000080F311884EF00D0E7047F6
:1001B0000000000006480068006880F3088862B606
:1001C00061B6BFF34F8FBFF36F8F00DF00BF00BF7B
:1001D00008ED00E0EFF30980BFF36F8F0F4B1A6853
:1001E00020E9F00F106008B54FF0BF0080F31188D0
:1001F000BFF34F8FBFF36F8F02F08CFA4FF0000008
:1002000080F31188BDE8084019680868B0E8F00F6D
:1002100080F30988BFF36F8F704700BF1400002080
:10022000EFF3058070470000094880470948004700
:10023000FEE7FEE7FEE7FEE7FEE7FEE7FEE7FEE796
:10024000FEE7FEE704480549054A064B70470000F3
:100250007B1B0008ED000008E8150020E81B0020CB
:10026000E8170020E81700200FB41CB5074B06AABA
:100270007B4469460090059800F021F9002069460A
:1002800000F030F91CBC5DF814FB000071020000A6
:100290002DE9F0410E460446002020622046E16828
:1002A000884730B3252805D0D4E901219047206A3A
:1002B000401CF2E7E168204600278847050018D077
:1002C000A5F14100192802D820354FF400673246C5
:1002D000294620462760FFF743FF40B1012804D09C
:1002E000F61D26F007060836D8E7361DD6E728465D
:1002F000DAE7206ABDE8F0812DE9F04106460024E6
:1003000010687529314616A510D0AFF3008000287B
:1003100002DA404213A507E031688A0701D512A529
:1003200002E0490704D511A5012401E0AFF30080E4
:1003300000210A2206F1240709E0B0FBF2FCB0FB21
:10034000F2F302FB1C00303078541846491C002898
:10035000F3D123462A463046BDE8F04100F051B8BB
:10036000000000002D0000002B0000002000000015
:1003700010B5431C02E010F8011B71B18107FAD1DE
:100380004FF0013202C88C1A8C4314EAC211F9D022
:10039000C01A0A0603D0C01E10BDC01A10BD0A0440
:1003A00001D0801E10BD0902FCD0401E10BD4FF0D0
:1003B000000200B5134694469646203922BFA0E8B5
:1003C0000C50A0E80C50B1F12001BFF4F7AF0907C1
:1003D00028BFA0E80C5048BF0CC05DF804EB8900B2
:1003E00028BF40F8042B08BF704748BF20F8022BF5
:1003F00011F0804F18BF00F8012B7047704770470D
:1004000070472DE9F0470D4699469246044600F1A3
:1004100024080168880604D5E06921F010012160F4
:1004200000E00120A84201DD471B00E00027A16990
:100430007A1902EB0900081AA0612078C00602D4DC
:100440002046AFF30080002608E0D4E901211AF825
:1004500006009047206A401C761C20624E45F4DB63
:100460002078C0060AD52046AFF3008006E0D4E924
:10047000012130209047206A401C2062381EA7F1DD
:100480000107F4DC07E0D4E9012118F805009047E2
:10049000206A401C2062281EA5F10105F3DC2046DD
:1004A000AFF300802078000602D50220BDE8F08777
:1004B0000120FBE701694A1C02610878704700B51A
:1004C0008FB0CDE901310021059105497944CDE98D
:1004D000031011466846FFF7DBFE0FB000BD0000B9
:1004E000E5FFFFFF0A6802F8010B0A607047000091
:1004F000004870478815002070477546FFF7F8FFE1
:10050000AE4605006946534620F00700854618B000
:1005100020B5FFF797FEBDE820404FF000064FF0F2
:1005200000074FF000084FF0000B21F00701AC4628
:10053000ACE8C009ACE8C009ACE8C009ACE8C00947
:100540008D46704710B50446AFF300802046BDE8E5
:100550001040FFF717BE000001491820ABBEFEE7B0
:100560002600020000BFFEE7704772B600BFFEE73C
:100570002DE9F84703460022944666E14FF0010852
:1005800008FA02F4D1F8008008EA0400A0427DD104
:10059000DFF8CCA2D1F80480A8EB0A09D0453AD004
:1005A00014DCB8F1030F50D009DCB8F1000F31D0E2
:1005B000B8F1010F1CD0B8F1020F49D120E0B8F119
:1005C000110F18D0B8F1120F42D11EE0B9F5881FF3
:1005D00025D006DCB9F5803F20D0B9F5801F37D192
:1005E0001AE0B9F5001F18D0B9F5041F30D117E093
:1005F000D1F80CC02DE0D1F80C8008F1040C28E0F3
:10060000D1F80C8008F1080C23E0D1F80C8008F137
:100610000C0C1EE000BF00BF00BF00BF00BF00BF4A
:10062000D1F80880B8F1000F02D14FF0040C0BE0B4
:10063000D1F80880B8F1010F03D14FF0080C1C610C
:1006400002E04FF0080C5C6103E04FF0000C00E0AA
:1006500000BF00BFFF2801D8984601E003F104085D
:100660004646FF2802D84FEA820803E0A2F10808B4
:100670004FEA88084746D6F800804FF00F0909FA7C
:1006800007F928EA09080CFA07F900E085E048EACA
:100690000908C6F80080D1F8048008F08058B8F145
:1006A000805F7AD100BFDFF8BC81D8F8188048F0AD
:1006B0000108DFF8B091C9F81880C846D8F818804A
:1006C00008F00108CDF8008000BF00BF4FEAB9383C
:1006D0004FEA920958F829504FEA82784FEA187980
:1006E0004FF00F0808FA09F825EA0805DFF87881C5
:1006F000434502D14FF000080FE0DFF87081434519
:1007000002D14FF0010808E0DFF86481434502D1CF
:100710004FF0020801E04FF003084FEA82794FEAF8
:10072000197908FA09F848EA0505DFF848814FEA1F
:10073000920948F82950D1F8048008F48018B8F5D7
:10074000801F0AD1DFF83081D8F8008048EA00081D
:10075000DFF82491C9F8008009E0DFF81C81D8F89F
:10076000008028EA0008DFF81091C9F80080D1F86D
:10077000048008F40018B8F5001F0FD1DFF8F880E6
:1007800008F10408D8F8008048EA0008DFF8E8908B
:1007900009F10409C9F800800EE055E0DFF8D880BF
:1007A00008F10408D8F8008028EA0008DFF8C890AB
:1007B00009F10409C9F80080D1F8048008F4003870
:1007C000B8F5003F0ED1DFF8B080A8F10408D8F8E2
:1007D000008048EA0008DFF8A090A9F10409C9F8F0
:1007E00000800DE0DFF89080A8F10408D8F80080C0
:1007F00028EA0008DFF88090A9F10409C9F8008010
:10080000D1F8048008F48038B8F5803F0ED1DFF8C5
:100810006880A8F10808D8F8008048EA0008DFF8E6
:100820005890A9F10809C9F800800DE0DFF8488068
:10083000A8F10808D8F8008028EA0008DFF8389006
:10084000A9F10809C9F80080521CD1F8008028FAE3
:1008500002F8B8F1000F7FF491AEBDE8F887000010
:10086000000011100010024000080140000C01407F
:10087000001001400800014008040140024693684E
:100880000B400BB1012000E00020704710B5C2689A
:1008900021EA020302EA010443EA0443036110BDB2
:1008A0000AB1016101E00B0403617047014800686F
:1008B00070470000040000200348006803490978DD
:1008C0000844014908607047040000200C00002023
:1008D00010B50848006840F0100006490860032081
:1008E00000F0DAF8012000F007F800F05DF80020D1
:1008F00010BD0000002002402DE9F04188B0044600
:100900000027B846002600BF2348C06940F0010018
:100910002149C8610846C06900F00100019000BF8C
:1009200000BF02A903A800F091F9069F1FB900F0CB
:10093000B5F9054602E000F0B1F945001748B5FBEE
:10094000F0F0A0F101084FF080401549086040F236
:10095000E7311348C160C0F8048000210161816063
:10096000816100F017FC064696B90D4800F046FC80
:1009700006466EB91C2000F041F8102C07D2002268
:1009800021461C2000F04AF80648046000E00126D9
:10099000304608B0BDE8F0810010024040420F0030
:1009A000780000200800002008B500BF11488069C9
:1009B00040F001000F4988610846806900F001009D
:1009C000009000BF00BF00BF0846C06940F08050E3
:1009D000C8610846C06900F08050009000BF00BFA9
:1009E00000BF0549486820F0E06040F000704860B2
:1009F00000BF08BD0010024000000140014608464B
:100A0000002809DB00F01F0301229A4043099B00E4
:100A100003F1E023C3F8002100BF70472DE9F05F28
:100A200080460D461646002701F0ECF80746394689
:100A30002A46334601F00700C0F1070ABAF1040F55
:100A400002D94FF0040A01E0C0F1070AD14600F1D3
:100A5000040ABAF1070F02D24FF0000A01E0A0F138
:100A6000030AD4464FF0010A0AFA09FAAAF1010A68
:100A70000AEA020A0AFA0CFA4FF0010B0BFA0CFB15
:100A8000ABF1010B0BEA030B4AEA0B04214640468B
:100A900001F0C0F8BDE8F09F00BF00F00702064B70
:100AA00019684FF6FF031940044B0B4343EA022138
:100AB000014B196000BF70470CED00E00000FA0523
:100AC00070B504460D460CB9012070BD5A48006847
:100AD00000F00700A8420ED25748006820F0070037
:100AE0002843554908600846006800F00700A842FE
:100AF00001D00120E9E7207800F0020002281DD192
:100B0000207800F00400042805D14C48406840F4E7
:100B1000E0604A494860207800F00800082805D1C4
:100B20004648406840F46050444948604348406843
:100B300020F0F000A168084340494860207800F0A8
:100B4000010078B36068012806D13C48006800F4D1
:100B5000003090B90120B8E76068022806D1374814
:100B6000006800F0007040B90120AEE7334800682B
:100B700000F0020008B90120A7E73048406820F0E3
:100B80000300616808432D494860FFF78FFE064661
:100B900009E0FFF78BFE801B41F28831884202D9C1
:100BA000032092E707E02548406800F00C006168E8
:100BB000B0EB810FEDD12048006800F00700A8429B
:100BC0000ED91D48006820F0070028431A49086024
:100BD0000846006800F00700A84201D0012074E731
:100BE000207800F00400042807D11448406820F45D
:100BF000E060E168084311494860207800F008008F
:100C0000082808D10D48406820F46050216940EA66
:100C1000C1000A49486000F051F808494968C1F329
:100C20000311074A515CC84006490860064800683D
:100C3000FFF762FE002048E700200240001002405B
:100C40009E2B000810000020080000200F220260E8
:100C50000D4A526802F0030242600B4A526802F0E9
:100C6000F0028260084A526802F4E062C260064AFA
:100C7000526802F46052D2080261044A126802F01B
:100C800007020A6070470000001002400020024086
:100C900001480068704700001000002000B5FFF711
:100CA000F7FF04494968C1F30221034A515CC84077
:100CB00000BD000000100240AE2B000870B50021FE
:100CC0000022002400230020134D696801F00C0568
:100CD000F5B1042D02D0082D19D101E00F4819E01B
:100CE0000F4DC1F38346AB5D01F4803555B10A4D1C
:100CF0006D68C5F340450B4E725D084D5D43B5FB15
:100D0000F2F402E0084D03FB05F4204602E000BFC8
:100D1000024800BF00BF70BD0010024000127A0000
:100D20008C2B00089C2B000800093D00F8B50446F8
:100D30000CB90120F8BD207800F00100002878D01F
:100D4000F848406800F00C0004280CD0F5484068D2
:100D500000F00C00082811D1F248406800F48030FF
:100D6000B0F5803F0AD1EF48006800F40030002859
:100D70005FD0606800285CD10120DBE700BF6068BD
:100D8000B0F5803F06D1E748006840F48030E5497F
:100D9000086028E0606858B9E248006820F48030B4
:100DA000E04908600846006820F4802008601AE0E6
:100DB0006068B0F5A02F0BD1DA48006840F48020BD
:100DC000D84908600846006840F4803008600AE0AE
:100DD000D448006820F48030D24908600846006892
:100DE00020F48020086000BF606888B1FFF75EFDD6
:100DF000054606E0FFF75AFD401B642801D9032091
:100E000098E7C848006800F400300028F2D010E0ED
:100E1000FFF74CFD054606E0FFF748FD401B642840
:100E200001D9032086E7BF48006800F4003000289D
:100E3000F2D1207800F00200022857D1B94840686A
:100E400000F00C0050B1B748406800F00C000828D2
:100E500018D1B448406800F4803098B9B1480068AF
:100E600000F0020020B12069012801D0012061E7D3
:100E7000AC48006820F0F800616940EAC100A94967
:100E8000086033E02069E8B10120A7490860FFF756
:100E90000DFD054606E0FFF709FD401B022801D9BC
:100EA000032047E79F48006800F002000028F2D0C6
:100EB0009C48006820F0F800616940EAC100994947
:100EC000086013E0002098490860FFF7EFFC054632
:100ED00006E0FFF7EBFC401B022801D9032029E7BD
:100EE0009048006800F002000028F2D1207800F05D
:100EF000080008282DD1A069B8B101208B490860ED
:100F0000FFF7D4FC054606E0FFF7D0FC401B0228A3
:100F100001D903200EE78348406A00F00200002850
:100F2000F2D0012000F0DAFD13E000207F490860D4
:100F3000FFF7BCFC054606E0FFF7B8FC401B0228A3
:100F400001D90320F6E67748406A00F00200002845
:100F5000F2D1207800F00400042873D100277148F2
:100F6000C06900F0805070B900BF6E48C06940F0A1
:100F700080506C49C8610846C06900F080500090FC
:100F800000BF00BF01276A48006800F48070B0B954
:100F90006748006840F4807065490860FFF786FC88
:100FA000054606E0FFF782FC401B642801D90320B8
:100FB000C0E65F48006800F480700028F2D000BFEF
:100FC000E068012806D15748006A40F00100554901
:100FD000086227E0E06858B95248006A20F0010032
:100FE000504908620846006A20F00400086219E0CF
:100FF000E06805280BD14B48006A40F004004949DD
:1010000008620846006A40F0010008620AE04548AC
:10101000006A20F00100434908620846006A20F097
:101020000400086200BFE068A0B1FFF73FFC05467E
:1010300009E0FFF73BFC401B41F28831884202D9AE
:10104000032077E622E03748006A00F0020000281B
:10105000EFD012E0FFF72AFC054608E0FFF726FC78
:10106000401B41F28831884201D9032062E62D48B5
:10107000006A00F002000028F0D1012F05D12948B4
:10108000C06920F080502749C86100BFE069C8B33B
:101090002448406800F00C00082860D0E06902286D
:1010A00048D1002020490866FFF700FC054606E00D
:1010B000FFF7FCFB401B022801D903203AE6194840
:1010C000006800F000700028F2D1206AB0F5803F7F
:1010D00007D11448406820F40030A1680843114942
:1010E0004860D4E9080108430E49496821F47411A5
:1010F00008430C49486001200B490866FFF7D6FBFE
:10110000054607E03DE0FFF7D1FB401B022801D96F
:1011100003200FE60348006800F000700028F2D0BA
:101120002FE00000001002400000424280044242D2
:1011300000700040002014490866FFF7B7FB054621
:1011400006E0FFF7B3FB401B022801D90320F1E5BD
:101150000E48006800F000700028F2D111E0E0694C
:10116000012800D1E6E50948466806F48031206A86
:10117000814204D106F47011606A814201D00120DD
:10118000D8E50020D6E500000000424200100240F1
:101190007047704710B504460CB9012010BD94F893
:1011A0003D0028B9002084F83C00204600F025F8D6
:1011B000022084F83D00211D206800F0E7FC01209A
:1011C00084F8460000BF84F83E0001213F2001550D
:1011D000402001554120015500BF00BF012084F887
:1011E000420043200155442001554520015500BFD0
:1011F000012084F83D000020D0E77047014691F8B7
:101200003D00012801D001207047022081F83D00F7
:101210000868C06840F001000B68D860104B08688F
:10122000984207D00868B0F1804F03D00D4B086892
:1012300098420CD10868806800F00702062A0CD09A
:101240000868006840F001000B68186005E0086855
:10125000006840F001000B6818600020D4E700002F
:10126000002C014000040040704770B5044620681F
:10127000C5682068066906F00200022819D105F049
:101280000200022815D1401F216808610120207743
:101290002068806900F0030018B12046FFF7E4FFE2
:1012A00005E0204600F097F8204600F095F8002071
:1012B000207706F00400042819D105F00400042862
:1012C00015D1C04321680861022020772068806919
:1012D00000F4407018B12046FFF7C6FF05E0204635
:1012E00000F079F8204600F077F80020207706F02B
:1012F0000800082819D105F00800082815D1C043B6
:1013000021680861042020772068C06900F003008C
:1013100018B12046FFF7A8FF05E0204600F05BF873
:10132000204600F059F80020207706F01000102821
:1013300019D105F01000102815D1C04321680861AB
:10134000082020772068C06900F4407018B120465A
:10135000FFF78AFF05E0204600F03DF8204600F048
:101360003BF80020207706F0010048B105F00100AD
:1013700030B16FF0010021680861204600F02DF8BF
:1013800006F08000802809D105F08000802805D172
:10139000C043216808612046FFF7FAFE06F04000CE
:1013A000402809D105F04000402805D1C0432168FC
:1013B0000861204600F01AF806F02000202809D124
:1013C00005F02000202805D1C0432168086120468F
:1013D000FFF7DFFE70BD7047704710B50446206808
:1013E000B0F1804F01D1FFF767FA10BD704700BF21
:1013F000FEE7000000B585B0002001900290039048
:10140000049000BF2D48806940F010002B4988618E
:101410000846806900F01000009000BF00BF00BFC8
:101420000846806940F0200088610846806900F025
:101430002000009000BF00BF00BF0846806940F058
:10144000040088610846806900F00400009000BF35
:1014500000BF00BF0846806940F008008861084668
:10146000806900F00800009000BF00BF0122510316
:101470001348FFF715FA01224FF440711148FFF7A6
:101480000FFA4FF4005001900120029000200390C9
:101490000220049001A90A48FFF76AF84FF440704F
:1014A000019011200290012003900320049001A9D3
:1014B0000448FFF75DF805B000BD000000100240D1
:1014C00000100140000C014000BFFEE710B50120F4
:1014D00000F050F8012000F059F810BD10B54FF49D
:1014E00000710248FFF7CAF910BD0000000C01406E
:1014F00010B5012000F04AF8012000F03BF8FFF79A
:10150000EDFF0446002000F035F8204610BD70B510
:101510000546002411E080212141294009B1012123
:1015200000E00021084600F031F8012000F022F828
:10153000002000F01FF8601CC4B2082CEBDB70BD6B
:1015400010B5012000F022F8012000F013F800206F
:1015500000F01CF8002000F00DF810BD10B50020C0
:1015600000F014F8012000F005F8012000F00EF85A
:1015700010BD000010B5044622464FF480710248A9
:10158000FFF78EF910BD0000000C014010B50446B5
:1015900022464FF400710248FFF782F910BD0000A7
:1015A000000C014000BFFEE700200CE0002106E037
:1015B0000022064B03EBC0135A544A1CD1B28029B7
:1015C000F6DB411CC8B20828F0DB7047C0000020E1
:1015D0002DE9F04304460D4616461F46284630E0E6
:1015E000234629E04FEAE07C00EB5C7C4FEAEC0C00
:1015F000DFF8588008EBCC1C1CF803C002464FEA09
:10160000E07800EB58784FEAE808A0EBC8094FF003
:10161000010808FA09F82CEA080C01464FEAE078BC
:1016200000EB58784FEAE808DFF8209009EBC8187B
:1016300008F803C0591CCBB2A1199942D2DC411C55
:10164000C8B2E9198142CBDCBDE8F083C0000020BC
:1016500070B502460846CC1701EB5474E410A1EBB8
:10166000C4050124AC400B46CD1701EB5575ED10B8
:10167000024E06EBC515AC5470BD0000C000002042
:101680002DE9F84304460D4616461F46DDF8209026
:10169000B9F1000F08D001203B46324629460090A0
:1016A000204600F029F825E0A0460DE029464046F6
:1016B000FFF7CEFFE819401EC1B24046FFF7C8FF52
:1016C00008F1010000F0FF08A0194045EEDCA84633
:1016D0000DE041462046FFF7BBFFA119491EC8B2E5
:1016E0004146FFF7B5FF08F1010000F0FF08E819D7
:1016F0004045EEDCBDE8F8832DE9F04704460D4691
:1017000016469C46089F28465EE0224657E07F2A00
:1017100053DC3F2851DC47B34FEAE07800EB5878C0
:101720004FEAE808DFF8AC9009EBC81818F8028017
:1017300003464FEAE07900EB59794FEAE909A0EB5B
:10174000C90A4FF0010909FA0AF948EA09080146ED
:101750004FEAE07900EB59794FEAE909DFF874A024
:101760000AEBC91909F8028027E04FEAE07800EB9C
:1017700058784FEAE808DFF85C9009EBC81818F8C9
:10178000028003464FEAE07900EB59794FEAE90914
:10179000A0EBC90A4FF0010909FA0AF928EA090879
:1017A00001464FEAE07900EB59794FEAE909DFF8A1
:1017B00024A00AEBC91909F80280511CCAB2A11968
:1017C0009142A4DC411CC8B205EB0C0181429CDCB7
:1017D000BDE8F087C000002010B5FFF777FEAE200F
:1017E00000F048F9D52000F045F9802000F042F9DA
:1017F000A82000F03FF93F2000F03CF9D32000F092
:1018000039F9002000F036F9402000F033F9A1202A
:1018100000F030F9C82000F02DF9DA2000F02AF9A4
:10182000122000F027F9812000F024F9CF2000F0E9
:1018300021F9D92000F01EF9F12000F01BF9DB207E
:1018400000F018F9302000F015F9A42000F012F98A
:10185000A62000F00FF98D2000F00CF9142000F004
:1018600009F9AF2000F006F910BD70B504460D4629
:1018700004F00F0000F0FEF8102141EA141000F00F
:10188000F9F845F0B00000F0F5F870BDF8B506467F
:101890000F4614461D46062D0ED1A4F1200000EB84
:1018A00040000D4901EB4000082306223946009014
:1018B000304600F015F80DE0082D0BD1A4F1200002
:1018C000064901EB00100F230822394600903046EC
:1018D00000F006F8F8BD0000A6310008B62B00089D
:1018E0002DE9F04705460C4616461F46DDF82080D8
:1018F0003B46324621462846FFF76AFE002067E055
:10190000002161E022464FEAE47C04EB5C7C00EBC2
:10191000EC0CDFF8D49009EBCC1C05EB01091CF8AA
:1019200009C023464FEAE47904EB59794FEAE90903
:10193000A4EBC90900FB061A18F80AA00AFA09FA6A
:101940004CEA0A0C4FEAE47904EB597900EBE90917
:10195000DFF894A00AEBC91905EB010A09F80AC0DF
:101960004FEAE47C04EB5C7C00EBEC0C0CF1010C2A
:10197000DFF8749009EBCC1C05EB01091CF809C0D9
:101980004FEAE47904EB59794FEAE909A4EBC90974
:10199000C9F1080900FB061A18F80AA04AFA09FA60
:1019A0004CEA0A0C4FEAE47904EB597900EBE909B7
:1019B00009F10109DFF830A00AEBC91905EB010AAA
:1019C00009F80AC04A1CD1B2B1429BDB411CC8B223
:1019D000791ECA1701EB5272012303EBE202824225
:1019E0008EDCBDE8F0870000C00000202DE9F0414A
:1019F0000646884615461F46002409E02A5D04FB7A
:101A00000761C8B23B464146FFF740FF601CC4B2C5
:101A1000285D0028F2D1BDE8F0812DE9F0410646AD
:101A20000C4615462046FEF7A3FCC7B207FB05F19E
:101A3000C1F1800000EBD071C1F347082B4622466C
:101A400031464046FFF7D2FFBDE8F08110B50024D3
:101A50000BE021460020FFF708FF054901EBC41009
:101A6000802100F01DF8601CC4B2082CF1DB10BD11
:101A7000C000002010B50446FFF762FD7820FFF794
:101A800046FDFFF735FD0020FFF741FDFFF730FD74
:101A90002046FFF73CFDFFF72BFDFFF75FFD10BD74
:101AA00070B505460E46FFF74BFD7820FFF72FFD7A
:101AB000FFF71EFD4020FFF72AFDFFF719FD002468
:101AC00006E0285DFFF723FDFFF712FD601CC4B29E
:101AD000B442F6DBFFF742FD70BD000008B50849CF
:101AE0000968C9084FF47A72B1FBF2F141430091E1
:101AF00000BF00BF00994A1E00920029F9D108BD1D
:101B00001000002010B500F0A3FE012801D000F065
:101B100069FE10BD00B58FB0282105A8FEF747FC6F
:101B200014216846FEF743FC01200590000406904E
:101B3000002007900120099002200C90C1030D9114
:101B40004FF4E0110E9105A8FFF7F0F808B1FEF789
:101B50000CFD0F20009002200190002002904FF415
:101B6000806003900020049002216846FEF7A8FFE1
:101B700008B1FEF7FAFC0FB000BD704710B502487F
:101B8000FFF773FB10BD00007800002010B502685D
:101B9000194B984205D0B0F1804F02D0174B9842B4
:101BA00003D122F070024B681A43134B984205D0C0
:101BB000B0F1804F02D0114B984203D122F4407211
:101BC000CB681A4322F080034C6943EA04020260A6
:101BD0008B68C3620B688362074B984201D10B6923
:101BE000036301234361036903F001031BB103692C
:101BF00023F00103036110BD002C014000040040EC
:101C000000BFFEE702480068C0F3022070470000F2
:101C10000CED00E010B5002804DB0A07130E054A9E
:101C2000135406E00A07140E034A00F00F031B1FAB
:101C3000D45410BD00E400E018ED00E01CB5FEF740
:101C400047FEFFF767FFFFF7D5FBFFF7C5FDFFF77F
:101C5000ABFC022000F092FD012807D008230AA265
:101C600000210846FFF7C2FEFFF7F0FE09480121F8
:101C700000238022CDE9001007A1084800F0CCFD28
:101C800000F0F6FC00BFFEE7416E696D2046616919
:101C90006C210000000000204C4544000D24000889
:101CA0002DE9F04705460E46294807682948D0F82F
:101CB00000802948D0F8009028480068001D00F0F6
:101CC00001FB50B92548006890F82C10012088408D
:101CD00023490968814322480160681CE0B9DEB1EC
:101CE00000BF204948681D49096888601B4982680F
:101CF0000968CA6019490968091D82685160174955
:101D00000968091D8160174A144909684A6111462A
:101D10000968491C116018E07C191048006844608B
:101D2000BC4206D20D480168091D484600F096FBEA
:101D30000BE00A480168091D404600F08FFB0A4885
:101D40000068844201D208480460BDE8F0870000C2
:101D500028000020180000201C0000201400002093
:101D60002C000020740500204400002010B504461B
:101D700000F09AFB32480068401C31490860314845
:101D8000006840B92F4804600846006801280DD15A
:101D900000F07AF90AE02C48006838B92948006850
:101DA000C06AE16A884201D8264804602748006872
:101DB000401C2649086000BF94F82C100120884080
:101DC0002349096808432249086000BFE16A01EB22
:101DD0008101204A02EB81014868A0608268E260CC
:101DE000211D826851608160E16A01EB8101194A1D
:101DF00002EB81026261E16A01EB8101154A52F84E
:101E00002110491CE26A02EB8202124B43F82210B5
:101E100000BF00BF00F05AFB0B48006878B100BF5C
:101E200008480068C06AE16A884207D24FF08050D3
:101E300009490860BFF34F8FBFF36F8F00BF10BD1C
:101E4000240000201400002030000020400000206A
:101E50002C000020C004002004ED00E010B516E0C6
:101E600000F022FB0C48C068C468201D00F02AFA6C
:101E70000A480068401E0949086009480068401E79
:101E80000749086000F022FB204600F06CF8044887
:101E900000680028E4D110BD600500202400002067
:101EA00020000020F0B587B001260027002408E0BC
:101EB00012A0005D03A9085503A8005D00B902E067
:101EC000641C102CF4DB00BF002510E00D4F0E4801
:101ED00000EB850000210B468022CDE9001003A90C
:101EE000384600F099FC064606B902E06D1C012D4B
:101EF000ECDB00BF304607B0F0BD000049444C4564
:101F000000000000E51F0008480000202DE9FF5FE9
:101F10000746884616469946DDE90EABB00000F04C
:101F20003FF9054675B14C2000F03AF904462CB152
:101F30004C212046FEF73BFA256304E0284600F0DA
:101F4000D5FA00E0002454B100204B463246414609
:101F5000CDE900ABCDE90240384600F057F8204605
:101F600004B0BDE8F09F10B50446206B00F0BEFA47
:101F7000204600F0BBFA10BD30B54FF48053144832
:101F800000F007042CB1C01D20F00700104C041B0A
:101F90001B1B104C206000240E4D6C60C218083AC8
:101FA00022F007020C4C226000240B4D2D686C605F
:101FB000094D2D682C600146541A4C60064C24686B
:101FC0000C60064D4C682C60054D4C682C6030BD93
:101FD00088050020540000205C00002064000020E0
:101FE0006000002000BFFFF739FF064800680128A5
:101FF000F9D94FF0805004490860BFF34F8FBFF309
:102000006F8FF0E7C004002004ED00E02DE9FF5FD2
:1020100080460E469146DDE90E7A109CA9F101003A
:10202000216B01EB800B2BF0070B7EB1002507E045
:10203000715D04F134004155705D00B902E06D1C22
:10204000102DF5D300BF002143200155052F00D3EB
:102050000427E762201D00F0FEF904F1180000F0EB
:10206000FAF92461C7F10500A0616462414658464F
:10207000039A00F015F92060BAF1000F01D0CAF8F8
:102080000040BDE8FF9F000010B5002407E004EB0E
:1020900084010F4A02EB810000F0D0F9641C052C8A
:1020A000F5D30C4800F0CAF90B4800F0C7F90B480B
:1020B00000F0C4F90A4800F0C1F90A4800F0BEF97E
:1020C00004480949086004480849086010BD000038
:1020D000C004002024050020380500204C05002005
:1020E0006005002074050020180000201C0000205E
:1020F00010B50146164800E0006803688B42FBD328
:102100000246436813448B4204D143684C6823441D
:10211000436001460A464B6813440468A34211D148
:102120000C4C03682468A34208D04B6804686468B8
:1021300023444B6003681B680B6005E0054B1B687C
:102140000B6001E003680B60884200D0016010BDA5
:10215000540000205C00002009480068006808B9AD
:10216000012000E0002020B14FF0FF300549086059
:1021700005E003480068C0680068024908607047CD
:10218000180000204400002000BFBF2080F3118809
:10219000BFF34F8FBFF36F8F00BF00BFFEE700009C
:1021A0002DE9F04704464FF00009DCB114F1090FA6
:1021B00001D9012000E0002098B9083404F007009C
:1021C00080B104F00700C0F10808C8F1FF30A04258
:1021D00001D2012000E0002008B9444402E00024BC
:1021E00000E0002400F08EFA2848006808B9FFF7E4
:1021F000C3FE012000EBE470002841D0002C3FD04A
:102200002348006884423BD8224E3046056801E0EE
:102210002E462D686868A04202D228680028F7D1AF
:102220001A48006885422BD0306800F108092868F8
:1022300030606868001B102807D92F196868001BD8
:1022400078606C6030683860376011496868096888
:10225000081A0F490860084600680F490968884253
:1022600003D20B4800680C490860686840F00040E1
:1022700068600020286009480068401C0749086021
:1022800000F0C6FB4846BDE8F08700005C00002077
:10229000600000205400002064000020680000203E
:1022A000001F4FF080730360001F21F001030360E3
:1022B000001F034B03601438026020387047000091
:1022C0008921000801460A69D1E901309860D1E905
:1022D000010358605068884201D18868506000202E
:1022E00008611068401E1060106870472DE9FC41BD
:1022F000FFF75AF9FFF7AAFB2426082325A210218D
:102300003046FFF773FBFFF7A1FB642000F020F9D4
:1023100000200A235022242100901820FFF7B0F952
:10232000FFF794FB642000F013F9002429E0224613
:102330001AA101A8FDF798FF01A8FEF719F880215E
:10234000A1EBC000C0F34705082301AA32212846AB
:10235000FFF74CFB002C0DDD4C206043642190FB0B
:10236000F1F0C7B2012006233A46262100901A2038
:10237000FFF7C2F9FFF76AFB642000F0E9F8601D7F
:10238000C4B2642CD3DD4FF4FA7000F0E1F8BDE87C
:10239000FC8100004C4F4144494E470025642525EF
:1023A000000000002DE9F04115A63046FDF7E0FFE2
:1023B000C5B2FFF7F9F8FFF749FB8021A1EBC50093
:1023C00000EBD071C1F347074FF0180800240EE06E
:1023D000325D07EBC401C8B208234146FFF756FA45
:1023E000FFF734FBC82000F0B3F8601CC4B2AC4265
:1023F000EEDB4FF4FA7000F0ABF8BDE8F0810000BE
:102400003247205849414F484549000002E00A2020
:1024100000F09EF8074800680028F8D008E04FF464
:1024200000510548FEF732FA4FF4FA7000F090F8C8
:10243000F5E70000740000200010014000F10801E1
:1024400041604FF0FF31816000F10801C16001611E
:1024500000210160704700210161704710B50246FC
:102460000B685C1C0CB9106907E002F1080000E081
:102470004068446824689C42FAD944684C604C68BF
:10248000A160886041600A611468641C146010BD1A
:1024900042684A6093688B609368596091600861F4
:1024A00003685B1C0360704700BFBF2080F3118886
:1024B000BFF34F8FBFF36F8F00BF03480068401C0E
:1024C000014908607047000070000020064800685D
:1024D000401E054908600846006820B9002080F3C6
:1024E000118800BF00BF70477000002070B506461D
:1024F0003546E6B1083D2C466068C00FB8B120688B
:10250000A8B9606820F00040606000F0FBF808495E
:10251000606809680844064908602046FFF7E8FD3E
:1025200004480068401C0349086000F071FA70BD5F
:10253000600000206C00002000204FF0E0210861C6
:102540008861024848610720086170473F1901000F
:1025500070B50446002544B100F0D4F800212046AF
:10256000FFF79EFB00F054FA05463DB94FF080504E
:1025700003490860BFF34F8FBFF36F8F70BD00003A
:1025800004ED00E02DE9F04105460026FFF78CFF41
:1025900015B92E48006800E028460446201DFFF7C4
:1025A00091FE88B900BFE06A00EB8000284951F82D
:1025B000200040B994F82C10012088402549096872
:1025C00081432448016000BFA06A18B104F11800DB
:1025D000FFF778FE20480068401C1F4908601B4830
:1025E0000068844201D1012000E0002007461B481A
:1025F000006858B157B1211D1948FFF749FF194824
:102600000068401C17490860012606E0164800686B
:10261000401E15490860FFF79FFDFFF757FF012E89
:1026200002D02046FFF79FFC0C48006858B10748CD
:102630000068844207D14FF080500C490860BFF316
:102640004F8FBFF36F8FBDE8F081000014000020B2
:10265000C00400202C00002040000020300000209A
:1026600060050020200000202400002004ED00E090
:1026700010B5FFF717FC0446012C14D100BFBF2092
:1026800080F31188BFF34F8FBFF36F8F00BF4FF000
:10269000FF3006490860012005490860002005490F
:1026A000086000F085F80448006810BD4400002070
:1026B00030000020280000204C00002010B5044607
:1026C000FEF772FF08220AA11820FFF7A6F9FFF70C
:1026D000BDF94FF4FA70FFF73BFFFFF763FEFFF71A
:1026E00005FE0120064908600020FFF74BFF10BDE2
:1026F000416E696D6174696F6E205374617274000C
:102700007400002002480068401C014908607047BE
:10271000500000201448006818B1012013490860D7
:1027200021E000201149086000BF11480068B0FA9C
:1027300080F0C0F11F0100BF01EB81020D4B03EBE4
:10274000820042685268426000F108024368934286
:1027500001D1C26842604268D268074B1A6000BF6C
:1027600000BF184600687047500000203800002065
:102770002C000020C0040020140000203EB50446B8
:102780000020029002A800234FF4807204A1CDE93A
:102790000040064800F040F8054628463EBD0000CF
:1027A000416E696D6174696F6E000000BD2600089E
:1027B00010B50A48006840F47F00084908600846E0
:1027C000006840F07F400860FFF7B6FE0020044933
:1027D0000860FDF7EFFC002010BD000020ED00E0D8
:1027E0007000002010B500BFBF2080F31188BFF338
:1027F0004F8FBFF36F8F00BF00F03AF818B14FF062
:1028000080500449086000BF002080F3118800BF99
:1028100010BD000004ED00E02DE9FC5F06460F4608
:1028200090469946DDE90CAB4B4642463946304668
:10283000CDE900ABFFF76AFB054625B12846FFF757
:1028400095FA012401E04FF0FF342046BDE8FC9FDB
:102850000549096809B9012005E00449096809B971
:10286000022000E0002070473000002050000020CF
:102870002DE9F04100275B48006800287DD15A48C7
:102880000068451C5848056095B900BF5748D0F806
:10289000008057480068554908605548C0F80080D6
:1028A00054480068401C53490860FFF755FC00BFBE
:1028B0005148006885427DD300BF4C4800680068DD
:1028C00008B9012000E0002020B14FF0FF304A4954
:1028D00008606EE045480068C068C4686668B54234
:1028E00002D24548066064E000BF6069D4E9021284
:1028F0008A60D4E902214A60211D42688A4201D1DE
:10290000E1684160002262610168491E016000BF08
:10291000A06AA0B100BFA06AD4E907128A60D4E916
:1029200007214A6004F1180142688A4201D1216AF4
:1029300041600022A2620168491E016000BF00BF21
:1029400094F82C10012088402C49096808432B4931
:10295000086000BFE16A01EB8101294A02EB8101B5
:102960004868A0608268E260211D826851608160D1
:10297000E16A01EB8101224A00E02BE002EB8102D7
:102980006261E16A01EB81011D4A52F82110491C84
:10299000E26A02EB82021A4B43F8221000BF00BF2A
:1029A0001849E06A0968C96A884286D9012784E71C
:1029B00000E000BF13480068C06A00EB80001049C7
:1029C00051F82000012800D901270F48006800B104
:1029D000012704E00D480068401C0C490860384697
:1029E000BDE8F081500000202800002018000020E1
:1029F0001C0000203C000020440000202C0000208F
:102A0000C004002014000020380000203400002002
:102A10002DE9F04100240027FFF746FD002552482C
:102A20000068401E504908600846006800286ED1C2
:102A30004E48006800286AD064E04D48C068C46809
:102A400000BFA06AD4E907128A60D4E907214A606E
:102A500004F1180142688A4201D1216A41600022D2
:102A6000A2620168491E016000BF00BF6069D4E92D
:102A700002128A60D4E902214A60211D42688A421A
:102A800001D1E1684160002262610168491E016074
:102A900000BF00BF94F82C10012088403549096818
:102AA00008433449086000BFE16A01EB8101324A02
:102AB00002EB81014868A0608268E260211D8268A3
:102AC00051608160E16A01EB81012B4A02EB8102D6
:102AD0006261E16A01EB8101274A52F82110491C29
:102AE000E26A02EB8202244B43F8221000BF00BFCF
:102AF0002249E06A0968C96A884203D9012020494D
:102B000041F825001A48006810B9012001E026E0CC
:102B10000020002891D00CB1FFF71EFB1948066871
:102B20006EB100BFFFF7A4FE18B10120144941F8AF
:102B30002500761E002EF5D10020124908601048AD
:102B400050F8250058B1012700BF0C48006838072D
:102B50000D490860BFF34F8FBFF36F8F00BFFFF7C2
:102B6000B5FC3846BDE8F08150000020240000206C
:102B70004C0500202C000020C00400201400002080
:102B8000380000203400002004ED00E002030405BA
:102B9000060708090A0B0C0D0E0F101001020000A9
:102BA00000000000000001020304060708090000FD
:102BB000000001020304000000000000000000000B
:102BC000000000000000000000F80000000000000D
:102BD00000333000000000160E00160E000000004A
:102BE00000000000000040C07840C0784000043F72
:102BF00004043F040400007088FC08300000001842
:102C000020FF211E0000F008F000E0180000002165
:102C10001C031E211E0000F00888700000001E2109
:102C2000232419272110000000160E0000000000C8
:102C3000000000000000000000E018040200000096
:102C400000071820400000020418E00000000040C7
:102C5000201807000000404080F080404000020241
:102C6000010F01020200000000F00000000001015D
:102C7000011F01010100000000000000000000B081
:102C800070000000000000000000000000000001D3
:102C900001010101010100000000000000000030FE
:102CA0003000000000000000000080601804006098
:102CB00018060100000000E010080810E000000FF6
:102CC000102020100F00001010F80000000000205D
:102CD000203F2020000000700808088870000030A5
:102CE000282422213000003008888848300000184D
:102CF000202020110E000000C02010F80000000766
:102D00000424243F240000F80888880808000019DB
:102D1000212020110E0000E0108888180000000F0C
:102D2000112020110E0000380808C83808000000E3
:102D3000003F000000000070880808887000001C38
:102D4000222121221C0000E010080810E0000000F1
:102D5000312222110F00000000C0C000000000005E
:102D6000003030000000000000C0C0000000000083
:102D700080B07000000000008040201008000001BA
:102D8000020408102000404040404040400004043D
:102D90000404040404000008102040800000002007
:102DA000100804020100007048080808F000000044
:102DB000003036010000C030C828E810E0000718D5
:102DC000272423140B000000C038E0000000203C42
:102DD00023020227382008F8888888700000203FE6
:102DE000202020110E00C0300808080838000718FD
:102DF00020202010080008F808080810E000203FF4
:102E0000202020100F0008F88888E8081000203FD4
:102E100020202320180008F88888E8081000203FA8
:102E2000200003000000C030080808380000071820
:102E30002020221E020008F808000008F808203FA1
:102E4000210101213F20000808F8080800000020A7
:102E5000203F2020000000000808F8080800C0807B
:102E600080807F00000008F888C028180800203FF4
:102E700020012638200008F8080000000000203F4C
:102E800020202020300008F8F800F8F80800203F43
:102E9000003F003F200008F830C00008F808203F3D
:102EA000200007183F00E01008080810E0000F108D
:102EB000202020100F0008F808080808F000203F24
:102EC000210101010000E01008080810E0000F18BF
:102ED000242438504F0008F8888888887000203FE4
:102EE0002000030C302000708808080838000038E3
:102EF000202121221C00180808F8080818000000EA
:102F0000203F2000000008F808000008F808001F13
:102F1000202020201F000878880000C83808000002
:102F200007380E010000F80800F80008F800033C1C
:102F30000700073C030008186880806818082030E4
:102F40002C03032C30200838C800C83808000000C3
:102F5000203F2000000010080808C838080020386A
:102F6000262120201800000000FE020202000000BE
:102F7000007F40404000000C30C000000000000016
:102F800000010638C00000020202FE0000000040FE
:102F900040407F00000000201008040810200000BE
:102FA0000000000000000000000000000000808021
:102FB0008080808080800002040800000000000003
:102FC00000000000000000008080808000000019E8
:102FD000242222223F2008F8008080000000003FC9
:102FE000112020110E000000008080800000000EE3
:102FF000112020201100000000808088F800000EC1
:10300000112020103F200000808080800000001FE1
:10301000222222221300008080F088888818002055
:10302000203F202000000000808080808000006B16
:1030300094949493600008F8008080800000203F02
:10304000210000203F200080989800000000002010
:10305000203F20200000000000809898000000C061
:103060008080807F000008F8000080808000203F82
:1030700024022D302000000808F800000000002085
:10308000203F202000008080808080808000203FC2
:1030900020003F20003F0080800080800000002052
:1030A0003F2100203F200000808080800000001F22
:1030B000202020201F00808000808000000080FFF2
:1030C000A12020110E000000008080808000000EF2
:1030D000112020A0FF808080800080808000202040
:1030E0003F212000010000008080808080000033AC
:1030F000242424241900008080E080800000000047
:10310000001F202000008080000000808000001F41
:10311000202020103F2080808000008080800001DF
:103120000E300806010080800080008080800F3013
:103130000C030C300F000080800080808000002095
:10314000312E0E31200080808000008080808081C0
:103150008E70180601000080808080808000002131
:10316000302C2221300000000000807C0202000090
:103170000000003F404000000000FF000000000091
:103180000000FF0000000002027C80000000004000
:10319000403F0000000000804040800000800000B0
:1031A0000000000101000000000000000000002FEE
:1031B000000000000700070000147F147F140024A3
:1031C0002A7F2A12002313086462003649552250D0
:1031D00000000007000000001C2241000000412206
:1031E0001C000014083E08140008083E08080000EF
:1031F00000A06000000808080808000060600000E7
:10320000002010080402003E5149453E0000427F64
:103210004000004261514946002141454B310018B0
:1032200014127F10002745454539003C4A49493072
:10323000000171090503003649494936000649492C
:10324000291E000036360000000056360000000837
:103250001422410000141414141400004122140814
:10326000000201510906003E4955592E007C1211F9
:10327000127C007F49494936003E41414122007F8E
:103280004141221C007F49494941007F0909090148
:10329000003E4149497A007F0808087F0000417FCD
:1032A0004100002040413F01007F08142241007F7F
:1032B00040404040007F020C027F007F0408107FE6
:1032C000003E4141413E007F09090906003E41514F
:1032D000215E007F0919294600464949493100010C
:1032E000017F0101003F4040403F001F2040201F60
:1032F000003F4038403F0063140814630007087023
:10330000080700615149454300007F414100000228
:1033100004081020000041417F0000040201020463
:10332000004040404040000001020400002054548E
:103330005478007F484444380038444444200038DE
:103340004444487F00385454541800087E09010250
:103350000018A4A4A47C007F080404780000447D25
:103360004000004080847D00007F10284400000061
:10337000417F4000007C04180478007C0804047835
:1033800000384444443800FC242424180018242421
:1033900018FC007C0804040800485454542000041D
:1033A0003F444020003C4040207C001C2040201C2A
:1033B000003C4030403C004428102844001CA0A0A1
:1033C000A07C004464544C440000087F410000008D
:1033D000007F00000000417F08000008040810087A
:1033E000E4BDA000008060F8074020180F08C8085E
:1033F00008281800010000FF00100C0340807F0027
:1034000001061800E5A5BD001010F01F10F00080A7
:103410008282E2928A8680004022150816610000AE
:1034200040807F0000000000E4B89600202020FECD
:103430002020FF202020FF20202020000000007FEF
:10344000404047444444474040400000E7958C00DA
:10345000000000FE929292FE929292FE0000000006
:1034600008080484621E010001FE0204040808002A
:1034700000000000FFFFFFFFFFFFFFFFFFFFFFFF58
:10348000FFFFFFFFFFFFFFFFFFFFFFFFFFFFFFFF4C
:10349000FFFFFFFFB43400080000002078000000A8
:1034A000280100082C35000878000020701B00005F
:1034B00044010008000000000000000010000000AF
:1034C0000100000000127A0000000000000000006F
:1034D00000000000000000000000000000000000EC
:1034E00000000000000000000000000000000000DC
:1034F00000000000000000000000000000000000CC
:1035000004000000000000000000000000000000B7
:1035100000000000000000000000000000000000AB
:0C35200000000000AAAAAAAA00000000F7
:04000005080000ED02
:00000001FF
